:020000040800F2
:1000000028F90020F92E00088D2F00088F2F0008F6
:10001000932F0008972F00089B2F00080000000076
:10002000000000000000000000000000A12F0008F8
:100030009F2F000800000000A32F00080B350008C8
:10004000A52F000873330008A72F0008A92F000868
:10005000AB2F0008AD2F0008AF2F0008B12F00080C
:10006000B32F0008B52F0008B72F0008B92F0008DC
:10007000BB2F0008BD2F0008BF2F0008C12F0008AC
:10008000C32F0008C52F0008C72F0008C92F00087C
:100090007F330008CB2F0008CD2F0008FB3100086C
:1000A000CF2F000829BD0008D12F0008D32F00084A
:1000B00041BA0008E7B70008E1BF0008D52F0008E3
:1000C000D72F0008D92F0008DB2F0008DD2F0008EC
:1000D000DF2F00083B310008E12F0008E32F000864
:1000E0005B320008E52F0008E72F0008E92F000821
:1000F000EB2F0008ED2F0008EF2F0008F12F00086C
:10010000F32F0008F52F0008FD2F0008F72F000837
:10011000F92F0008FB2F000809300008FF2F000806
:1001200001300008033000080530000807300008DF
:1001300000F002F800F05AF80AA090E8000C82449F
:100140008344AAF10107DA4501D100F04FF8AFF27C
:10015000090EBAE80F0013F0010F18BFFB1A43F0A5
:1001600001031847F8270100182801000A444FF03E
:10017000000C10F8013B13F0070408BF10F8014B06
:100180001D1108BF10F8015B641E05D010F8016B4B
:10019000641E01F8016BF9D113F0080F1EBF10F8AF
:1001A000014BAD1C0C1B09D16D1E58BF01F801CBD2
:1001B000FAD505E014F8016B01F8016B6D1EF9D555
:1001C0009142D6D37047000000230024002500266A
:1001D000103A28BF78C1FBD8520728BF30C148BFAA
:1001E0000B6070471FB51FBD10B510BD12F072FB3C
:1001F0001146FFF7F7FF02F091FE12F090FB03B4F7
:10020000FFF7F2FF03BC12F097FB000010B50446A5
:10021000D749601A8C422BD006DCD648204498B1CE
:10022000B0F5806F38D119E0B0F5806F2AD0B0F505
:100230006C4F31D10121880301F044F900214FF4C2
:10024000804001F03FF928E00121480401F047F91E
:1002500000214FF4003001F042F91EE00121880432
:1002600001F03DF900214FF4802001F038F914E04D
:100270000121C80401F033F900214FF4002001F0FE
:100280002EF90AE00121080501F029F900214FF4B7
:10029000801001F024F900E000BF00BF10BD2DE97F
:1002A000F04786B005460E460024A24600BF00BFB8
:1002B00000272F462C8A4CF6FF700440F088044338
:1002C0002C82AC894EF6F3100440B0883189084383
:1002D000718908430443AC81AC8A4FF6FF40044067
:1002E000B0890443AC8201A801F065F8A2488742B6
:1002F00002D1DDF810A001E0DDF80CA00AEBCA0085
:1003000000EB0A1031688900B0FBF1F86420B8FBFB
:10031000F0F004012009642101FB1089322000EB78
:100320000910B0FBF1F000F00F0004432C8106B07F
:10033000BDE8F0874FF41651016000218180C18033
:1003400001810C21418100218181704710B5024655
:100350000020108A4FF2FF0318400B884C8823437B
:100360008C882343CC8823431843108210BD00217E
:10037000018041808180C180704721B1828942F42F
:100380000052828104E082894DF6FF731A40828117
:100390007047F0B5034600240026002500201846CB
:1003A000C1F3421401F01F06012707FA06F5012CDC
:1003B00001D10C3004E0022C01D1103000E01430E7
:1003C0001AB107682F43076002E00768AF43076070
:1003D000F0BD1AB1838A0B43838202E0838A8B4388
:1003E00083827047028A4FF6F0731A400282028AB3
:1003F0000A430282704782894FF2FF731A4082815A
:1004000082890A438281704721B1828942F00202C7
:10041000828104E082894FF6FD731A408281704721
:10042000028A4FF6DF731A400282028A0A4302826E
:10043000704721B1028A42F48042028204E0028ABB
:100440004BF6FF731A4002827047C1F308028280A4
:10045000704701468888C0F308007047818941F0E1
:10046000010181817047028BD2B20283028B42EA82
:10047000012202837047028B02F47F420283028BC7
:100480000A430283704721B1828A42F020028282AD
:1004900004E0828A4FF6DF731A408282704721B1EE
:1004A000828A42F01002828204E0828A4FF6EF7361
:1004B0001A408282704721B1828A42F00802828209
:1004C00004E0828A4FF6F7731A4082827047828A6C
:1004D0004FF6FB731A408282828A0A4382827047F7
:1004E00021B1828A42F00202828204E0828A4FF6BF
:1004F000FD731A40828270470246002013880B4029
:100500000BB1012000E000207047CA430280704711
:1005100070B502460B460024002100250020C3F3DD
:10052000421503F01F01012606FA01F1012D02D147
:100530009689314006E0022D02D1168A314001E051
:10054000968A31401C12012606FA04F416883440BB
:1005500011B10CB1012000E0002070BD10B50022E7
:1005600000230A1201249440A3B2DC43048010BD8E
:10057000004C004000BCFFBF00380140FD49096845
:1005800001F03801FB4A116011460968014311600E
:100590007047F849096821F00801F64A11601146D0
:1005A0000968014311607047F249096821F01001A0
:1005B000F04A116011460968014311607047EE4826
:1005C000EC494860ED4848607047EA48006940F0EF
:1005D0008000E849086170470420E649C96801F0D5
:1005E000010109B101200EE0E249C96801F00401EE
:1005F00009B1022007E0DF49C96801F0100109B123
:10060000032000E00420704708B500200090FF2080
:10061000009002E00098401E009000980028F9D158
:1006200008BD70B504460425FFF7D6FF054605E072
:10063000FFF7EAFFFFF7D0FF0546641E012D01D149
:10064000002CF5D104B90525284670BD70B50546C6
:10065000042440F6FF70FFF7E4FF0446042C19D190
:10066000C448006940F00200C2490861084645617B
:10067000006940F04000086140F6FF70FFF7D1FFCD
:100680000446012C06D0BB48006941F6FD710840C4
:10069000B8490861204670BD10B5042440F6FF70CB
:1006A000FFF7BFFF0446042C18D1B248006940F0A0
:1006B0000400B04908610846006940F04000086144
:1006C00040F6FF70FFF7ADFF0446012C06D0A948A5
:1006D000006941F6FB710840A6490861204610BD3B
:1006E00010B5042440F6FF70FFF79BFF0446042C6E
:1006F0003BD1A1489F498860A048886008460069AE
:1007000040F0200008610846006940F040000861A0
:1007100040F6FF70FFF785FF0446042C1CD1954876
:10072000006941F6DF710840924908610846006996
:1007300040F010000861A520914908800F20FFF7C4
:1007400070FF0446012C10D08A48006941F6EF7111
:1007500008408849086108E0012C06D085480069F6
:1007600041F6EF71084083490861204610BD70B51D
:1007700005460E4604240F20FFF753FF0446042CC1
:1007800025D17C48006940F001007A4908612E803B
:100790000F20FFF746FF0446042C0FD1300C688071
:1007A0000F20FFF73EFF0446012C10D0714800696E
:1007B00041F6FE7108406F49086108E0012C06D03F
:1007C0006C48006941F6FE7108406A49086120469C
:1007D00070BD70B505460E4604240F20FFF721FFBB
:1007E0000446042C13D16348006940F001006149BC
:1007F00008612E800F20FFF714FF0446012C06D05D
:100800005C48006941F6FE7108405A49086120467B
:1008100070BD70B505460E4604240F20FFF701FF9A
:100820000446042C17D154485249886053488860C4
:100830000846006940F0100008612E800F20FFF785
:10084000F0FE0446012C06D04A48006941F6EF71DB
:10085000084048490861204670BD2DE9F04704462C
:100860004FF6FF763746B046B1460425E443E6B27C
:10087000C4F30727C4F307484FEA14690F20FFF7B2
:10088000D0FE0546042D40D13B483A4988603B489C
:1008900088600846006940F010000861FF2E06D00D
:1008A0003748083006800F20FFF7BBFE0546042DB1
:1008B00008D1FF2F06D032480A3007800F20FFF7FB
:1008C000B0FE0546042D0AD1B8F1FF0F07D02C4821
:1008D0000C30A0F800800F20FFF7A3FE0546042D82
:1008E0000AD1B9F1FF0F07D025480E30A0F80090CB
:1008F0000F20FFF796FE0546012D06D01D48006922
:1009000041F6EF7108401B4908612846BDE8F087B1
:1009100070B50546042440F6FF70FFF782FE0446DA
:10092000042C4AD11448134988601448886008464A
:10093000006940F0200008610846006940F040006E
:10094000086140F6FF70FFF76CFE0446042C2BD1C3
:100950000848006941F6DF71084006490861084609
:10096000006940F01000086165B10020044908806A
:100970000BE000000020024023016745AB89EFCD6A
:1009800000F8FF1FA5204549088040F6FF70FFF7DB
:1009900048FE0446012C10D04148006941F6EF7131
:1009A00008403F49086108E0012C06D03C48006936
:1009B00041F6DF7108403A490861204670BD2DE9D3
:1009C000F04107460D4616460424364834498860EF
:1009D000354888600F20FFF724FE0446042C1AD106
:1009E0002F48006940F010002D49086147EA0500D2
:1009F000304340F0F8002949891C08800F20FFF798
:100A000010FE0446012C06D02548006941F6EF711E
:100A10000840234908612046BDE8F0812048C069AC
:100A2000800870471E48006A704700201C49C96949
:100A300001F0020109B1012000E000207047002010
:100A40001749096801F0200109B1012000E00020E8
:100A5000704729B1124A12690243114B1A6104E02E
:100A60000F4A126982430E4B1A61704701460020FB
:100A7000012908D10A4AD26902F001020AB1012013
:100A800008E0002006E0064AD2680A400AB10120C8
:100A900000E0002070470249C860704700F8FF1F5F
:100AA0000020024023016745AB89EFCD10B5044615
:100AB000C549601A8C422FD009DCC448204480B15B
:100AC000B0F5806F16D0B0F5006F4AD11BE0B0F5DD
:100AD000806F2AD0B0F5006F30D0B0F5406F40D1B4
:100AE00035E00121042000F0EDFC0021042000F09D
:100AF000E9FC37E00121082000F0E4FC0021082097
:100B000000F0E0FC2EE00121102000F0DBFC0021D1
:100B1000102000F0D7FC25E00121202000F0D2FCBD
:100B20000021202000F0CEFC1CE00121402000F03C
:100B3000C9FC0021402000F0C5FC13E00121802009
:100B400000F0C0FC0021802000F0BCFC0AE0012184
:100B5000080200F0B7FC00214FF4807000F0B2FCF6
:100B600000E000BF00BF10BD10B50121084600F035
:100B7000A9FC0021012000F0A5FC10BD2DE9F041E9
:100B8000024600250026002000230024002791F8BB
:100B900003C00CF00F0591F803C00CF0100CBCF171
:100BA000000F03D091F802C04CEA050591F800C08F
:100BB000BCF1000F30D0146800202AE04FF0010C87
:100BC0000CFA00F3B1F800C00CEA03069E421FD1F4
:100BD00083004FF00F0C0CFA03F7BC4305FA03FC3B
:100BE0004CEA040491F803C0BCF1280F05D14FF082
:100BF000010C0CFA00FCC2F814C091F803C0BCF15F
:100C0000480F05D14FF0010C0CFA00FCC2F810C0DF
:100C1000401C0828D2D31460B1F800C0BCF1FF0F0B
:100C200034DD546800202EE000F1080C4FF001087C
:100C300008FA0CF3B1F800C00CEA03069E4221D179
:100C400083004FF00F0C0CFA03F7BC4305FA03FCCA
:100C50004CEA040491F803C0BCF1280F05D100F15F
:100C6000080C08FA0CF8C2F8148091F803C0BCF123
:100C7000480F07D100F1080C4FF0010808FA0CF8F2
:100C8000C2F81080401C0828CED35460BDE8F08123
:100C90004FF6FF710180022181700421C1707047FD
:100CA0000246002093680B400BB1012000E00020B9
:100CB00070470146886880B2704702460020D368BA
:100CC0000B400BB1012000E0002070470146C868CE
:100CD00080B2704701617047416170470AB101619C
:100CE00000E041617047C16070474FF480320A43B1
:100CF0008261816182618269826970470246002057
:100D0000334B18684FF68073184040EA02100843CE
:100D10002F4B186070472F49C8617047F0B50A46DD
:100D20000023002400210025294E7168C0F30345EB
:100D300083B200F44016B6F5401F08D121F070616F
:100D4000234E766826F07066214F7E6012E000F434
:100D50008016B6F5801F06D1032606FA05F4A143D6
:100D600041F0706106E0460D360103FA06F6B14324
:100D700041F0706122B1460D360103FA06F63143A7
:100D8000134E7160F0BD30B500228B071C0F0F238E
:100D900003FA04F20E4B08338C1053F824309343BB
:100DA0000B4C08348D1044F8253023468C1053F832
:100DB00024308C07240F00FA04F42343044C083435
:100DC0008D1044F8253030BD0014014000F8FEBFFE
:100DD00000000140000020420020411EED4A116049
:100DE0000A09EC498039C1F88420411E4FF0E02205
:100DF000C2F880120A09E8490A6000BF04E0002234
:100E0000E64941F82020401C0F28F8D37047002005
:100E10004FF02061E24A11600021121D1160E1498A
:100E2000121D11600021121D1160121D116000BF02
:100E300005E00022DA49143141F82020401C032843
:100E4000F7D30021D64A20321160491E121D1160CD
:100E5000121D1160121D11607047D2490143D04A22
:100E6000083211607047F0B50021002200230025F0
:100E70000F24C678002E35D0C94E0836366806F4E1
:100E8000E066C6F5E066310AC1F10405CC4046785B
:100E900006FA05F186782640314309010678B6073F
:100EA000F60EB140BD4E0778BF1056F827200678E1
:100EB000B607F70EFF2606FA07F39A4319400A43CE
:100EC000B64E0778BF1046F82720067806F01F07B1
:100ED0000126BE4007787F11BF0007F1E027C7F861
:100EE00000610BE0067806F01F070126BE40A94FFF
:100EF00090F800C04FEA6C1C47F82C60F0BD002150
:100F0000017041708170C170704710B501F0DDFF54
:100F100010BD10B501F0D7FF10BD10B501F0DAFF1C
:100F200010BD10B501F0D8FF10BD10B5044620016A
:100F300001F0D7FF10BD10B501F0D6FF10BD9848E5
:100F40000068C0F30930704710B501460020002248
:100F500001F01F04012303FA04F28E4B80334C117D
:100F600053F824301340934201D1012000E00020C7
:100F700010BD8D490860704700F01F0201219140AB
:100F8000854A121F431142F82310704784480068B5
:100F9000C0F30900704710B501460020002201F09F
:100FA0001F04012303FA04F27B4B7C334C1153F8EA
:100FB00024301340934201D1012000E0002010BDF5
:100FC0007748001F00687047784A0A400243744B14
:100FD0001B1D1A6070477348001D71490831086075
:100FE00070477048401C6E4908310860704739B13D
:100FF0006B4A0C3212680243694B0C331A6006E0EC
:10100000674A0C3212688243654B0C331A60704792
:1010100010B5002200F01F04012303FA04F239B1D5
:101020005F4B20331B6813435D4C2034236006E084
:101030005B4B20331B689343594C2034236010BD15
:10104000F0B503460C4615460020FF22002600217D
:10105000534F08373F6807F4E067C7F5E067390A80
:10106000C1F10400CA4004FA00F105EA020739435D
:10107000090103F0C0008009C3F30122D700B94081
:101080004FEAC20CFF2707FA0CF6454F143757F802
:101090002070B743DFF808C10CF1140C4CF8207035
:1010A000674657F820700F434CF82070F0BD10B51C
:1010B0000246002000230021910A01F00F010124C3
:1010C00004FA01F1364C2034246804EA01038B420F
:1010D00001D1012000E0002010BD002100F01F011F
:1010E0002F4A126801238B401A432D4B1A60704718
:1010F00010B5002100F01F01294A12684B1E01247F
:101100009C402243264B1A6010BD10B502460020B9
:1011100000230021C2F38331012404FA01F1204CA1
:101120002034246804EA01038B4201D1012000E04D
:10113000002010BD30B50146002000220023C1F37D
:101140008142C1F301531AB9154C2834206811E0CB
:10115000012A0CD1124C24342468DD0024FA05F055
:10116000022B02D000F00F0004E0C0B202E00C4CF1
:101170002C34206830BD014600200022C1F380528B
:101180001AB9074B3033186802E0054B343318683E
:101190007047000080E100E084E200E000E400E04D
:1011A00004ED00E00000FA0500EF00E080FFFF1F03
:1011B000E048006840F00100DE49086008464068E9
:1011C000DD490840DB49486008460068DB490840C3
:1011D000D84908600846006820F480200860084666
:1011E000406820F4FE004860002088607047D149C4
:1011F000096821F48031CF4A11601146096821F451
:1012000080211160B0F5803F03D0B0F5802F0ED162
:1012100006E0C849096841F48031C64A116007E018
:10122000C449096841F4A021C24A116000E000BF2E
:1012300000BF704710B501460022002300204A116C
:10124000012A02D1BB4C236806E0022A02D1B94C24
:10125000236A01E0B74C636A01F01F020124944045
:101260001C400CB1012000E0002010BD10B500248E
:1012700000BF3120FFF7DEFFB1490870B1480068B8
:10128000401CB0490860AE48007828B9084600689C
:1012900040F2FF118842ECD13120FFF7CBFF08B1BB
:1012A000012400E00024204610BD01460020A14A90
:1012B000106820F0F80040EAC10010607047A249B1
:1012C00008607047024600209A4B586820F47C1052
:1012D00042EA01031843974B586070479A490866E1
:1012E000704701460020934A506820F003000843ED
:1012F000506070478F48406800F00C00704701460E
:1013000000208C4A506820F0F0000843506070477D
:1013100001460020874A506820F4E060084350608E
:10132000704701460020834A506820F4605040EA2C
:10133000C1005060704729B17E4A527A02437D4B0A
:101340005A7204E07B4A527A82437A4B5A7270474F
:101350007D49D8310860704701460020754A5068C1
:1013600020F440400843506070470021714A203209
:101370001170704A82F82010012802D004280AD186
:1013800004E001216B4A2032117005E00521694A11
:101390002032117000E000BF00BF70476B49086049
:1013A00070476449096A0143624A1162704767499C
:1013B00044390860704730B5002100220024002322
:1013C0005C4D6D6805F00C0121B1042905D0082998
:1013D00023D105E05E4D056022E05D4D05601FE014
:1013E000544D6D6805F47012022505EB9242514D83
:1013F0006D6805F480341CB9564D554305600BE00B
:101400004C4D6D6805F400351DB1524D55430560D6
:1014100002E04F4D5543056002E04D4D056000BFB1
:1014200000BF444D6D6805F0F00109094A4D6B5C41
:101430000568DD4045603F4D6D6805F4E061090ACF
:10144000454D6B5C4568DD4085603A4D6D6805F43F
:101450006051C90A404D6B5C4568DD40C560354D43
:101460006D6805F44041890B3C4D6B5CC568B5FB6C
:10147000F3F5056130BD29B12E4A526902432D4B67
:101480005A6104E02B4A526982432A4B5A617047E1
:1014900029B1284A92690243264B9A6104E0254A01
:1014A00092698243234B9A61704729B1214AD269DC
:1014B0000243204BDA6104E01E4AD26982431D4B8D
:1014C000DA61704729B11B4AD2680243194BDA60CE
:1014D00004E0184AD2688243164BDA60704729B19B
:1014E000144A12690243134B1A6104E0114A12694B
:1014F0008243104B1A6170471449403908607047A5
:101500001149C86470470B49C87170470948406A5F
:1015100040F0807007494862704701460020054A44
:1015200092680A400AB1012000E00020704701499A
:1015300088727047001002400000FFF8FFFFF6FEBF
:1015400000000020040000200000424280044242CB
:1015500000127A0000093D004629010856290108B9
:1015600010B50446CB48204478B1B0F5806F16D052
:10157000B0F5784F1DD101210803FFF7A3FF00212B
:101580004FF48050FFF79EFF14E001218803FFF71E
:10159000A6FF00214FF48040FFF7A1FF0AE00121E0
:1015A000C803FFF79CFF00214FF40040FFF797FFAF
:1015B00000E000BF00BF10BD10B50022028802F499
:1015C00041520B884C8823438C882343CC88234387
:1015D0000C8923434C8923438C892343CC8923439F
:1015E0001A430280838B4FF2FF74234083830B8A5C
:1015F000038210BD2DE9F04786B005460C464FF03A
:10160000000902274FF000084FF0010A0026A88BBE
:101610004FF240010840A88302202884B5F81C90AE
:101620002089022801D100BF31E0A08810B94FF015
:10163000010A01E04FF0020A01A8FFF7BCFEE088B2
:10164000B0F5007F0AD1019800EB800040002189AD
:101650000902B0FBF1F0401D86B20BE04FEA4A10E0
:1016600021894843019901EB81014900B1FBF0F068
:10167000401D86B20A20B6FBF0F606F00108A6EB84
:101680000800C0F34F074FF6FF7000EA0828022F4A
:1016900001DBFF2F02DD02274FF0000847EA0800B8
:1016A000E18808432884208840F40060618808436A
:1016B000A18808436189084340EA0909A5F81C90FC
:1016C00006B0BDE8F0870021018041808180C180A3
:1016D000018141818181C1810721018270470021FF
:1016E000018041808180C1800221018100214181EE
:1016F000704721B1028842F04002028004E0028873
:101700004FF6BF731A400280704721B1828B42F4BA
:101710008062828304E0828B4FF6FF331A4082831B
:10172000704730B5002400230C110125A540ABB251
:101730001AB185881D43858002E085889D43858098
:1017400030BD1AB183880B43838002E083888B43CA
:1017500083807047818170470146888970474FF6C2
:10176000FF62914204D0028842F48072028004E059
:1017700002884FF6FF631A400280704721B18288C9
:1017800042F00402828004E082884FF6FB731A4024
:101790008280704702884FF2FF731A4002800288ED
:1017A0000A4302807047018841F4805101807047EC
:1017B00021B1028842F40052028004E002884DF612
:1017C000FF731A400280704702460020012901D0B1
:1017D000108B00E0908A70470146088A7047B1F587
:1017E000804F04D1028842F48042028004E00288E3
:1017F0004BF6FF731A40028070470246002013899F
:101800000B400BB1012000E000207047202905D1DA
:101810000289028842F04002028007E0402901D09C
:10182000082901D1028901E0CA4302817047F0B55D
:101830000246002000240023002501F00F070126A6
:10184000BE40B4B20B1101269E40B3B2968806EAA0
:1018500003051689264016B10DB1012000E00020D5
:10186000F0BD10B50022552905D10389038843F046
:10187000400303800CE0562901D0532901D103898C
:1018800006E001F00F040123A3409AB2D343038181
:1018900010BD000000C8FFBF042808D14FF0E021B0
:1018A000096941F004014FF0E022116107E04FF0B7
:1018B000E021096921F004014FF0E0221161704735
:1018C0004FF0E02148617047012808D14FF0E02136
:1018D000096941F001014FF0E02211610EE0811C25
:1018E00041B94FF0E021096921F001014FF0E022F8
:1018F000116103E000214FF0E0229161704740B197
:101900004FF0E021096941F002014FF0E02211613E
:1019100007E04FF0E021096921F002014FF0E022D9
:10192000116170474FF0E0208069704710B50146A3
:10193000002200230020CB10022B03D14FF0E02423
:10194000226902E04FF0E024E26901248C40144057
:101950000CB1012000E0002010BD000010B50446CD
:10196000F749601A8C4245D00CDCB4F1804F1DD091
:10197000F448204418B3B0F5806F29D0B0F5006F5B
:1019800054D12EE0B0F5806F3DD0B0F58E3F03D03E
:10199000B0F5923F4AD13FE00121C802FFF792FD26
:1019A00000214FF40060FFF78DFD40E00121084663
:1019B000FFF795FD00210120FFF791FD37E00121A0
:1019C0000220FFF78CFD00210220FFF788FD2EE0AA
:1019D00001210420FFF783FD00210420FFF77FFD94
:1019E00025E001210820FFF77AFD00210820FFF7FC
:1019F00076FD1CE001211020FFF771FD0021102071
:101A0000FFF76DFD13E001212020FFF768FD0021A5
:101A10002020FFF764FD0AE001214803FFF752FD93
:101A200000214FF40050FFF74DFD00E000BF00BF64
:101A300010BD028802F08F020280CA884B881A43C8
:101A400003881A4302808A8882850A8802850122D7
:101A50008282BD4A904202D0BC4A904201D10A7AA9
:101A60000286704770B5002400220023058C4FF6D3
:101A7000FE7635400584028C8388048B4FF68F7583
:101A80002C400D882C43751E2A400D892A434D8811
:101A90002A43CD888586AC4DA84202D0AB4DA842E2
:101AA00013D14FF6F7752A404D892A434FF6FB753F
:101AB0002A408D882A4347F6FF652B4047F6FF559D
:101AC0002B408D892B43CD892B4383800483028453
:101AD00070BD70B5002400220023058C4FF6EF7610
:101AE00035400584028C8388048B48F6FF752C40B2
:101AF0000D884FF6FF7606EA05252C434FF6DF7575
:101B00002A400D8906EA05152A434D8806EA05157F
:101B10002A43CD8805878C4DA84202D08B4DA84220
:101B20001DD14FF67F752A404D894FF6FF7606EAA4
:101B300005152A434FF6BF752A408D8806EA05151C
:101B40002A4347F6FF352B4047F2FF752B408D891E
:101B500006EA85052B43CD8906EA85052B4383805C
:101B60000483028470BD70B5002400220023058C1C
:101B70004FF6FF6635400584028C8388848B4FF6D0
:101B80008F752C400D882C434FF6FF552A400D8948
:101B90004FF6FF7606EA05252A434D8806EA052515
:101BA0002A43CD888587684DA84202D0674DA84258
:101BB0001DD14FF2FF752A404D894FF6FF7606EA98
:101BC00005252A434FF6FF352A408D8806EA05256C
:101BD0002A4346F6FF752B4045F6FF752B408D894D
:101BE00006EA05152B43CD8906EA05152B438380AC
:101BF0008483028470BD70B5002400220023058C0C
:101C00004EF6FF7635400584028C8388848B48F637
:101C1000FF752C400D884FF6FF7606EA05252C430C
:101C20004DF6FF752A400D8906EA05352A434D8891
:101C300006EA05352A43CD88A0F84050424DA84217
:101C400002D0424DA84207D1C3F30D038D894FF650
:101C5000FF7606EA85152B4383808483028470BD5A
:101C6000828B4FF2FF331A408283828B4FF6FF73D1
:101C700003EA01231A4382837047F0B50C461546E8
:101C8000002100220026078C4EF6FF7C07EA0C0795
:101C90000784818B028C4FF6FF7707EA043640F603
:101CA000FF4739404FF6FF7707EA05274FF6FF7CDD
:101CB0000CEA033C47EA0C0739434DF6FF773A40FC
:101CC00046F480573A4381830284F0BD828B4FF6FD
:101CD000F3731A408283828B0A4382837047F0B584
:101CE0000C461546002100220026078C4FF6FF6C9B
:101CF00007EA0C070784818B028C4FF6FF7707EA0F
:101D000004264FF60C7739404FF6FF7707EA0317A2
:101D10002F4339434FF6FF573A4046F480773A4312
:101D200081830284F0BD028B4FF2FF331A4002839D
:101D3000028B4FF6FF7303EA01231A4302837047B5
:101D40000010004000FCFFBF002C014000340140A7
:101D5000F0B50C461546002100220026078C4FF6F0
:101D6000EF7C07EA0C070784018B028C4FF6FF77A4
:101D700007EA041640F6FF4739404FF6FF7707EAB7
:101D8000033739434FF6FF7707EA052739434FF604
:101D9000DF773A4046F010073A4301830284F0BDF2
:101DA000028B4FF6F3731A400283028B0A430283BD
:101DB0007047F0B50C46154600210022068C4FF600
:101DC000FE773E400684018B028C4FF60C76314044
:101DD0007E1C06EA03162E4331437E1E324044F039
:101DE0000106324301830284F0BD70B505460C46FE
:101DF000208850B92389A28861882846FFF7D9FF37
:101E0000E1882846FFF7CCFF25E0208804280AD186
:101E10002389A28861882846FFF79AFFE18828462F
:101E2000FFF781FF17E0208808280AD12389A288BC
:101E300061882846FFF753FFE1882846FFF746FFF1
:101E400009E02389A28861882846FFF716FFE18808
:101E50002846FFF705FF70BD2DE9F04105460C4609
:101E600000260127608808B9022600E00026A08825
:101E7000012801D1022700E001272088A0B9238989
:101E8000A28861882846FFF794FFE1882846FFF77B
:101E900087FF23893A4631462846FFF759FFE188F4
:101EA0002846FFF740FF13E02389A288618828466F
:101EB000FFF74EFFE1882846FFF735FF23893A46B2
:101EC00031462846FFF775FFE1882846FFF768FF8F
:101ED000BDE8F0810A884B881A438B881A43CB8867
:101EE0001A430B891A434B891A438B891A43A0F86A
:101EF000442070474FF6FF71818000210180C1802E
:101F00004180017270470021018041808180C18041
:101F1000018141818181C18170470021018041801F
:101F2000012181800021C180018170470021018051
:101F300041808180C180018141818181704721B1CF
:101F4000028842F00102028004E0028840F2FE337F
:101F50001A400280704731B1B0F8442042F4004288
:101F6000A0F8442005E0B0F84420C2F30E02A0F827
:101F7000442070471AB183890B43838102E083892F
:101F80008B43838170478182704741EA0203A0F846
:101F9000483070471AB183890B43838102E08389FB
:101FA0008B438381704701894FF6F872114001819C
:101FB00070470A46002101894FF68F73194011437B
:101FC0000181704730B504460D4629462046FFF78B
:101FD000F0FF208940F00700208130BD2DE9F0415D
:101FE00004460D4616461F46602D06D13B4601228B
:101FF00031462046FFF7ACFE05E03B460122314664
:102000002046FFF7D6FE29462046FFF7D2FF20895B
:1020100040F007002081BDE8F08170B50C4600213A
:102020000189C9B244EA02054FF6FF7606EA0326A3
:1020300035432943018170BD2DE9F04105460E4627
:1020400017469846002443463A4631462846FFF74D
:10205000E4FF2C894FF6F870044044F007044FF673
:102060008F70044044F070042C81BDE8F081F0B51D
:1020700004460D4616461F463B4632462946204634
:10208000FFF7CBFF208940F480402081F0BD01851F
:10209000828270470A460021018840F28F3319403E
:1020A000114301807047F0B50C4615461E460021CD
:1020B000002200230189028B038C4FF6F877394008
:1020C00021434FF6FC473A4040F201173A434FF69E
:1020D000DD773B404FF6FF7707EA06172F433B4378
:1020E000018102830384F0BD0A460021018B4FF673
:1020F0008F7319401143018370470A460021018BF9
:1021000048F6FF7319404FF6FF7303EA02231943A1
:10211000018370470A460021818B4FF68F73194067
:102120001143818370470A460021818B48F6FF7373
:1021300019404FF6FF7303EA022319438183704766
:1021400021B1028842F08002028004E0028840F25D
:102150007F331A400280704721B1828842F0040226
:10216000828004E082884FF6FB731A4082807047B9
:1021700021B1828842F00802828004E082884FF612
:10218000F7731A408280704721B1828842F00102C1
:10219000828004E082884FF6FE731A408280704786
:1021A0000A460021018B4FF6F77319401143018352
:1021B00070470A460021018B4FF2FF7319404FF61A
:1021C000FF7303EA02231943018370470A46002183
:1021D000818B4FF6F77319401143818370470A468C
:1021E0000021818B4FF2FF7319404FF6FF7303EA12
:1021F00002231943818370470A460021018B4FF661
:10220000FB7319401143018370470A460021018B7B
:102210004FF6FF3319404FF6FF7303EA02231943C9
:10222000018370470A460021818B4FF6FB731940EA
:102230001143818370470A460021818B4FF6FF339B
:1022400019404FF6FF7303EA022319438183704755
:102250000A460021018B4FF67F7319401143018319
:1022600070470A460021018BC1F30E014FF6FF7340
:1022700003EA02231943018370470A460021818B38
:102280004FF67F7319401143818370470A4600213E
:10229000818BC1F30E014FF6FF7303EA022319434A
:1022A000818370470A460021018C4FF6FD73194067
:1022B0001143018470470A460021018C4FF6F773E1
:1022C00019401143018470470A460021018C4FF6E2
:1022D000DF7319404FF6FF7303EA021319430184B9
:1022E00070470A460021018C4FF67F7319404FF664
:1022F000FF7303EA02131943018470470A46002161
:10230000018C4FF6FF5319404FF6FF7303EA022387
:102310001943018470470A460021018C4FF2FF7374
:1023200019404FF6FF7303EA0223194301847047F3
:102330000A460021018C4DF6FF7319404FF6FF73DA
:1023400003EA023319430184704710B5038C01245A
:102350008C40A3430384038C02FA01F4A4B2234308
:10236000038410BD10B5038C04248C40A343038464
:10237000038C02FA01F4A4B22343038410BD30B5E8
:10238000038C01248C40A343038409B1082912D192
:1023900000F1180303EB61031B684FF68F742340B1
:1023A00000F1180404EB6104236000F1180303EB4F
:1023B00061031A6018E00B1FC3F34E0400F1180309
:1023C0001B5948F6FF7423400C1FC4F34E0500F15F
:1023D000180463514FF6FF7303EA02240B1FC3F383
:1023E0004E0500F118035C5130BD21B1028842F066
:1023F0000202028004E0028840F2FD331A400280AB
:10240000704721B1028842F00402028004E0028891
:1024100040F2FB331A400280704721B1828842F0BB
:102420008002828004E082884FF67F731A408280A7
:102430007047028840F2F7331A40028002880A434C
:102440000280704782884FF68F731A40828082889C
:102450000A438280704702894FF6F8731A4002815E
:1024600002890A430281704702894FF67F731A403E
:10247000028102890A430281704781847047818505
:102480007047818670470187704781877047A0F841
:10249000401070470288D2B2028002880A4302804C
:1024A00070470146888E70470146088F7047014685
:1024B000888F70470146B1F8400070470146888C0C
:1024C00070470146088D704702460020138A0B4072
:1024D0000BB1012000E000207047CA430282704720
:1024E00030B50246002000230024158A05EA0103C6
:1024F000958905EA010413B10CB1012000E0002028
:1025000030BDCA430282704700204C490860091D53
:102510000860091D0860091D0860494847491431D1
:10252000086070478179002946D0444909680268EB
:102530009143424A1160111D0968026891433F4A64
:10254000121D116001793F4A1144D1F8001402684C
:10255000114302793B4B1A44C2F800143749083141
:10256000096802689143354A08321160111D0968F3
:1025700002689143314A0C321160417910290ED121
:10258000111F0968026811432C4A08321160111D9D
:10259000096802681143294A0C32116018E0417938
:1025A000284A1144D1F80014026811434279254B9E
:1025B0001A44C2F800140BE00179224A1144D1F800
:1025C00000140268914302791E4B1A44C2F80014A9
:1025D00070470021016001710C214171002181715E
:1025E00070471649103109680143144A10321160CE
:1025F000704701460020114A143212680A400AB19D
:10260000012000E0002070470C4914310860704739
:10261000014600200022094B1B6803EA0102074B18
:1026200014331B680B4013B10AB1012000E00020F5
:1026300070470249143108607047000000040140EF
:10264000FFFF07000000014010B501214806FEF71A
:1026500046FF00214FF00070FEF741FF10BD10B59E
:10266000014600200123FA4C2360231D1B6803F060
:10267000010303B984E00B78012B06D1F44B1B68EE
:1026800043F08003F24C236005E0F14B1B6823F01C
:102690008003EF4C23604B78012B06D1EC4B1B6879
:1026A00043F04003EA4C236005E0E94B1B6823F04C
:1026B0004003E74C23608B78012B06D1E44B1B6869
:1026C00043F02003E24C236005E0E14B1B6823F05C
:1026D0002003DF4C2360CB78012B06D1DC4B1B6839
:1026E00043F01003DA4C236005E0D94B1B6823F05C
:1026F0001003D74C23600B79012B06D1D44B1B68F8
:1027000043F00803D24C236005E0D14B1B6823F053
:102710000803CF4C23604B79012B06D1CC4B1B68AF
:1027200043F00403CA4C236005E0C94B1B6823F047
:102730000403C74C23608B799B07CC7943EA04637D
:102740000C7A43EA04434C7A43EA04534C89641EEE
:102750002343BF4C1C3423600120BD4B1B6823F076
:102760000103BB4C2360820201E0531E9AB2002A8F
:10277000FBDCB74B1B1D1B6803F0010303B10020FA
:1027800010BD10B50021037801229A4091B2B14AE0
:10279000126842F00102AF4B1A60AE4A1C32126856
:1027A0008A43AC4B1C331A608278CAB9A94A0C32EE
:1027B00012688A43A74B0C331A60C288438942EAE5
:1027C0000343A44A4032047842F8343082880389B3
:1027D00042EA03439F4A4032047802EBC40253604A
:1027E0008278012A19D19B4A0C3212680A43994B0C
:1027F0000C331A60C288838842EA0343954A403208
:10280000047842F834304289038942EA0343914A0A
:102810004032047802EBC402536042783AB98D4AE0
:10282000121D12688A438B4B1B1D1A6006E0894AF1
:10283000121D12680A43874B1B1D1A60828932B928
:10284000844A143212688A43824B14331A60828994
:10285000012A06D17F4A143212680A437D4B143391
:102860001A60827B012A06D17A4A1C3212680A4316
:10287000784B1C331A60774A126822F00102754BBC
:102880001A6010BD0021017041708170C17001712A
:1028900041718171C17103210172022141720121D3
:1028A0004181704739B16A4A143212680243684B59
:1028B00014331A6006E0664A143212688243644B8D
:1028C00014331A60704710B501460020604A083280
:1028D000126802F08062B2F1806F00D114E05C4AAD
:1028E0000832126802F00062B2F1006F01D10120DB
:1028F0000AE0574A0832126802F08052B2F1805F53
:1029000001D1022000E0042004287CD0514A803A02
:1029100002EB0012126802F001034E4A803A02EB09
:10292000001213600A7ABAB90A88C2F30A020A606E
:102930000A8852050A60474A803A02EB001213687F
:102940000C7A0A6822434C7A22431343414A803A64
:1029500002EB0012136016E04A6822F060424A60FF
:102960004A68D2004A603B4A803A02EB0012136880
:102970000C7A4A6822434C7A22431343354A803A00
:1029800002EB001213608A7A02F00F028A72314A57
:10299000803A02EB0012526822F00F032D4A803A6F
:1029A00002EB001253602B4A803A02EB001252688D
:1029B0008B7A1A43274B803B03EB00135A608A7BC8
:1029C00013064A7B43EA02430A7B43EA0223CA7A9C
:1029D0001343204A803A02EB001293608A7C13066C
:1029E0004A7C43EA02430A7C43EA0222CB7B13433C
:1029F000184A803A02EB0012D360164A803A02EB82
:102A00000012126800E006E042F00103114A803A29
:102A100002EB0012136010BD0146002021B1012914
:102A20001AD002293CD129E0094A0832126802F082
:102A3000010240EA8200064A0832126802F00202ED
:102A40001043034A08321268C2F38062104329E03F
:102A50000064004000660040F74A126802F4807289
:102A600040EA9210F44A126802F4007240EA12201E
:102A7000F14A1268C2F3C062104313E0EE4A1268D2
:102A800002F4803240EA9230EB4A126802F40032DB
:102A900040EA1240E84A1268C2F30072104301E0B3
:102AA000002000BF00BF20B1052804D0072806D1B0
:102AB00003E0022005E0002003E0012001E0002007
:102AC00000BF00BF704720B1012809D0022815D1EE
:102AD0000DE0D949096841F08001D74A11600EE044
:102AE000D549096841F40041D34A116007E0D24951
:102AF000096841F40001D04A116000E000BF00BF46
:102B0000704720B92021CC4A121D116003E020211A
:102B1000C94A0832116070470146002029B9C64AE7
:102B2000121D126802F0030008E0012905D1C24A13
:102B30000832126802F0030000E00020704710B570
:102B400004460B46BD4800EB0410006800F004008A
:102B50001872187A48B9B94800EB0410006840F2BE
:102B6000FF7101EA5050186008E0B44800EB04100F
:102B700000686FF0604101EAD0005860AF4800EB98
:102B80000410006800F002005872AC4800EB04101A
:102B9000406800F00F009872A84800EB04104068ED
:102BA000000AD874A54800EB04108068D872A348C6
:102BB00000EB04108068010A1973A04800EB0410B0
:102BC0008068010C59739D4800EB04108068000E6A
:102BD00098739A4800EB0410C068D873974800EBCC
:102BE0000410C068010A1974944800EB0410C0680E
:102BF000010C5974914800EB0410C068000E9874E1
:102C00002046FFF77EFF10BD00208B490839096878
:102C100041F00201884A083A116001201146096812
:102C200001F0020101B900207047002082490839F3
:102C3000096821F00201804A083A116000BF11467C
:102C4000096801F0020101B9012070470146002026
:102C5000794A103212680A400AB1012000E00020CF
:102C600070477549103109688143734A1032116009
:102C700070470246002002EA01030BB1012000E088
:102C80000020704770B504460025402C4FD00EDC64
:102C9000072C2CD006DC042C31D0052C19D0062CA6
:102CA00076D11DE0082C32D0202C71D137E0B4F55C
:102CB000806F54D006DCB4F5807F40D0B4F5007F3F
:102CC00066D144E0B4F5803F59D0B4F5003F5FD100
:102CD0004DE0594908680121FFF7CBFF054659E04F
:102CE000554908688915FFF7C4FF054652E0524967
:102CF00008684FF48031FFF7BCFF05464AE04E49B3
:102D0000091D08680821FFF7B4FF054642E04A495B
:102D1000091D08681021FFF7ACFF05463AE0464957
:102D2000083108680821FFF7A4FF054632E0424950
:102D3000083108681021FFF79CFF05462AE03E494C
:102D4000103108680121FFF794FF054622E03A4957
:102D5000103108680221FFF78CFF05461AE036495A
:102D6000103108680421FFF784FF054612E032495C
:102D7000091F08681021FFF77CFF05460AE02E496D
:102D8000091F08680821FFF774FF054602E0FFE706
:102D9000002500BF00BF284670BD40283ED00EDC95
:102DA000072827D006DC042829D0052819D00628B2
:102DB0005ED11AE0082827D0202859D129E0B0F5A3
:102DC000806F44D006DCB0F5807F2CD0B0F5007F5A
:102DD0004ED135E0B0F5803F40D0B0F5003F47D14F
:102DE00041E00121144A116043E04FF48071124A1E
:102DF00011603EE04FF480310F4A116039E0082144
:102E00000D4A121D116034E010210B4A121D116091
:102E10002FE00821084A083211602AE01021064AF2
:102E20000832116025E004491031096821F00101E0
:102E3000014A103211601CE008640040B065004097
:102E40000D49096821F002010B4A116011E00A499D
:102E5000096821F00401084A11600AE00821064AC5
:102E6000143A116005E01021034A143A116000E0A1
:102E700000BF00BF704700001864004030BF7047BB
:102E800020BF704740BF7047BFF36F8F7047BFF3DD
:102E90004F8F7047BFF35F8F704701DF7047EFF3CD
:102EA0001480704780F31488BFF36F8F7047EFF37F
:102EB0000980704780F309887047EFF308807047F6
:102EC00080F30888704762B6704772B67047EFF3B8
:102ED0001080704771B6704761B67047EFF313808A
:102EE000704780F311887047EFF31280704740BA43
:102EF000704700BA70470000034800470348044980
:102F0000044A054B704700003101000828F10020F9
:102F100028F9002028F5002028F5002001F06EFB9C
:102F200001F038FD01F0B9FB01F0F5FD01F024FEE0
:102F300000F0C2FA01F012FD01F064FE02F0ACF8FC
:102F4000642000F0C6FA0CF028F9642000F0C1FA01
:102F500006F0C3F80F200B4908804FF47A7000F098
:102F6000B8FA0DF08DFE01200749087009E007F05E
:102F70006DFA06F078FF06F0B1FB05F010FF05F0E2
:102F8000DEFEF4E7480A0020DD000020704700BFA5
:102F9000FEE700BFFEE700BFFEE700BFFEE77047A9
:102FA0007047704770477047704770477047704769
:102FB0007047704770477047704770477047704759
:102FC0007047704770477047704770477047704749
:102FD0007047704770477047704770477047704739
:102FE0007047704770477047704770477047704729
:102FF0007047704770477047704770477047704719
:10300000704770477047704710B500240121FE4893
:10301000FFF766FA00287DD00121FB48FFF771FA1F
:10302000FA48007868B9FA480068401CF849086016
:10303000084600680A2804D1002008600120F349EE
:103040000870F448006868B1F2480068401CF14913
:1030500008600846006842F21071884202D90020D8
:10306000EC490860EC48006868B1EB480068401C17
:10307000E94908600846006842F21071884202D9A6
:103080000020E5490860E548007801280FD1E448B0
:103090000068401CE249086008460068022806D122
:1030A00000200860DD4908700120DE490870DE4814
:1030B0000078012816D1DD480068401CDB49086013
:1030C000DB480078012804D1DA480068401CD9495F
:1030D0000860D9480078012804D1D8480068401C0D
:1030E000D6490860D648007820B1D6480068401C10
:1030F000D4490860D448007820B1D4480068401C06
:10310000D2490860D248007830B1D2480068401CEB
:10311000D04900E010E00860CF48007801280BD1CA
:10312000CE480068401CCD49086008460068B0F5EC
:10313000FA7F01D90020086010BD10B540F225517A
:10314000C748FDF7E5F9002856D0C548FDF781F9D5
:10315000C449C54A12788854C448007800284BD125
:10316000C348007880B90846BF490978405CF52813
:1031700006D10120BE4908700020BE4908703BE01E
:103180000020B949087037E0B7480078401CB649BC
:103190000870B44800780978884224D10020B449E6
:1031A00008700120B4490870AF480078401EAD494E
:1031B000085CFA2806D00120AE4908700020AA4910
:1031C000087019E00020AB4908700120AB49087075
:1031D000A5480078AA4908700020A349087001207A
:1031E000A249087008E0A04800783C2804DB0020D1
:1031F0009F4908709C49087010BD10B54FF40070CD
:10320000FFF706FA40B39F48007840F008009D4958
:10321000087000209C4908709C4908709C490870FF
:103220009C4908709C4908709C4908700DF076FC18
:1032300001200DF073FC00219948FEF780FE032069
:103240000DF06CFC04200DF069FC05200DF066FC0F
:103250004FF40070FFF7EDF910BD10B54FF480602A
:10326000FFF7D6F940B38748007840F00800854959
:1032700008700020844908708449087084490870E7
:103280008449087084490870844908700DF046FC30
:1032900001200DF043FC00218148FEF750FE032081
:1032A0000DF03CFC04200DF039FC05200DF036FC3F
:1032B0004FF48060FFF7BDF94FF40060FFF7A8F905
:1032C00040B37048007840F008006E490870002054
:1032D0006D4908706D4908706D4908706D49087036
:1032E0006D4908706D4908700DF018FC01200DF053
:1032F00015FC00216A48FEF722FE03200DF00EFCAB
:1033000004200DF00BFC05200DF008FC4FF40060CC
:10331000FFF78FF94FF48050FFF77AF940B359481F
:10332000007840F00800574908700020564908709E
:103330005649087056490870564908705649087031
:10334000564908700DF0EAFB01200DF0E7FB002163
:103350005348FEF7F4FD03200DF0E0FB04200DF0D0
:10336000DDFB05200DF0DAFB4FF48050FFF761F92B
:1033700010BD10B54FF48030FFF75BF910BD00B5FC
:1033800085B00220FFF709FD0020009001908DF824
:1033900008008DF80A008DF813008DF80B0000214D
:1033A0008DF80C108DF80D108DF80E108DF80F1093
:1033B0008DF810108DF811108DF812106946FFF776
:1033C000BEFB3849009808809DF80B00364908700C
:1033D0009DF80C0048709DF80D0088709DF80E0057
:1033E000C8709DF80F0008719DF8100048719DF895
:1033F000110088719DF81200C8712A48008800F4F5
:10340000F0602A49088053E000100040FD000020D1
:10341000F8000020800100209801002061000020B9
:103420005C000020620000205C010020640100209C
:10343000D8090020DC090020110A0020140A00200D
:10344000F5090020F8090020FC090020000A0020EE
:10345000E1090020E4090020DE0000201401002022
:1034600000380140B81D0020490400204504002018
:1034700042040020430400204404002046040020AD
:103480004A0400202E0100202204002023040020F2
:103490002404002025040020260400202704002006
:1034A000002C01407C0A00203F0A00204A0A00202C
:1034B0000EF0D2FB05B000BD10B56FF00400FEF7B2
:1034C000EBF942F22830FEF7FBF90120FEF717FA7C
:1034D00010BD10B504460120FEF7F6F91B48046044
:1034E00000BF1A4800680028FBD1801EFEF7ECF9E7
:1034F0000020FEF7E9F910BD1448006820B1134818
:103500000068401E11490860704700B5FFF7F4FFDE
:1035100000BD01B581B007E00820009000BF009811
:10352000411E00910028FAD10198411E0191002806
:10353000F2D10CBD01B503E04FF47A70FFF7E9FF5B
:103540000098411E00910028F6D108BD0800002017
:1035500010B54FF48071F948FDF7A2FBC8B90A20F5
:10356000FFF7B7FF4FF48071F448FDF799FB68B996
:103570000A20FFF7AEFF4FF48071F048FDF790FB93
:1035800008B9002010BDFFF7E3FFFBE7FFF7E0FFFE
:10359000F8E70120F6E710B504464FF40041E8488B
:1035A000FDF77EFBA0420FD10A20FFF792FF4FF4F8
:1035B0000041E348FDF774FBA04201D1012010BD9A
:1035C0002046FFF7E8FFFAE70020F8E710B54FF4D0
:1035D0000041DB48FDF764FB01280DD10A20FFF70D
:1035E00078FF4FF40041D648FDF75AFB012800D17F
:1035F00010BDFFF7EBFFFBE70020F9E710B54FF434
:103600000041CF48FDF74CFB68B90A20FFF761FF86
:103610004FF40041CA48FDF743FB08B9012010BD33
:10362000FFF7ECFFFBE70020F9E770B505460E4613
:10363000144684B931462846FDF732FB48B9C82004
:10364000FFF767FF31462846FDF72AFB08B900203F
:1036500070BD0120FCE731462846FDF721FB48B14B
:10366000C820FFF756FF31462846FDF719FB08B181
:103670000120EDE70020EBE770B505460024162D8C
:103680007DD2DFE805F07C0B233B536B849CB5CEE9
:10369000F6F4F3F2F1F0EFEEEDECEBEAA948007886
:1036A00000F001020821A848FFF7BFFF044634B12B
:1036B000A448007800F0FE00A249087005E0A14887
:1036C000007840F001009F49087011E29D480078A1
:1036D00000F0020210219D48FFF7A7FF044634B115
:1036E0009848007800F0FD009649087005E095487C
:1036F000007840F0020093490870F9E19148407861
:1037000000F0040210219048FFF78FFF044634B107
:103710008C48007800F0FB008A49087005E0894871
:10372000007840F0040087490870E1E1854840785E
:1037300000F0080220218448FFF777FF044634B1E7
:103740008048007800F0F7007E49087005E07D4869
:10375000007840F008007B490870C9E1794840785A
:1037600000F0100201217A48FFF75FFF04463CB1E8
:103770007448007800F0EF007249087006E0B6E186
:103780007048007840F010006E490870B0E16D4854
:10379000407800F0200202216D48FFF746FF044602
:1037A00034B16848007800F0DF006649087005E031
:1037B0006448007840F020006249087098E1614850
:1037C000407800F040024FF400616248FFF72DFF9F
:1037D000044634B15B48007800F0BF0059490870D6
:1037E00005E05848007840F04000564908707FE1F5
:1037F0005448407800F080024FF480515548FFF75C
:1038000014FF044634B14F48007800F07F004D4962
:10381000087005E04B48007840F080004949087086
:1038200066E14848407800F001024FF400514948F1
:10383000FFF7FBFE04464CB14248407800F0FE0022
:103840004049487000204449087005E03D484078F0
:1038500040F001003B4948704AE130E117E1FDE0EA
:10386000E3E0C9E0AFE095E07CE04FE036E01CE04B
:10387000FFE73448807800F002024FF48041354879
:10388000FFF7D3FE04464CB12E48407800F0FD000F
:103890002C49487000203149087005E029484078DB
:1038A00040F002002749487022E12648807800F065
:1038B00004024FF400412748FFF7B7FE044634B135
:1038C0002048407800F0FB001E49487005E01D4884
:1038D000407840F004001B49487009E1194880789D
:1038E00000F0080201211E48FFF79FFE044634B194
:1038F0001448407800F0F7001249487005E011487C
:10390000407840F008000F494870F1E00D48807899
:1039100000F0100202211248FFF787FE044634B17E
:103920000848407800F0EF000649487005E0054877
:10393000407840F0100003494870D9E0001401407D
:10394000001801400E000020001001400008014056
:10395000000C0140001C0140050100200601002070
:10396000002001406448807800F0200280216348F4
:10397000FFF75BFE044634B15F48407800F0DF009B
:103980005D49487005E05C48407840F020005A49A5
:103990004870ADE05848807800F040024FF48071E4
:1039A0005648FFF742FE044634B15348407800F0D1
:1039B000BF005149487005E04F48407840F0400052
:1039C0004D49487094E04C48807800F080024FF4F4
:1039D00000714A48FFF729FE044634B14648407852
:1039E00000F07F004449487005E04348407840F0CB
:1039F0008000414948707BE03F48807800F0010238
:103A00004FF480613D48FFF710FE044634B13A4858
:103A1000807800F0FE003849887005E036488078EC
:103A200040F001003449887062E03348C07800F00B
:103A300002024FF400613148FFF7F7FD044634B14C
:103A40002D48807800F0FD002B49887005E02A4859
:103A5000807840F002002849887049E02648C07804
:103A600000F004024FF480512448FFF7DEFD0446C5
:103A700034B12148807800F0FB001F49887005E0D0
:103A80001D48807840F004001B49887030E01A48D7
:103A9000C07800F0080208211948FFF7C6FD044667
:103AA00034B11548807800F0F7001349887005E0BC
:103AB0001148807840F008000F49887018E00E48DF
:103AC000C07800F0100210210D48FFF7AEFD04464B
:103AD00034B10948807800F0EF000749887005E0AC
:103AE0000548807840F010000349887000E000BF6E
:103AF00000BF204670BD00000E00002000180140ED
:103B0000001C014010B50446601E2E2825D2DFE8B7
:103B100000F0172534435261707F8E9CAAB8C6F519
:103B2000F3F2F1F0EFEEEDECEBEAE9E8E7E6E5E4DD
:103B3000E3E2E1E0DFDEDDDCDBDAD9D8D7D6D5D4CD
:103B40002021F848FDF7C6F80120FFF7C2FCF6482F
:103B5000007840F00100F449087097E24FF400410A
:103B6000F248FDF7B7F80120FFF7B3FCEE48007804
:103B700040F00200EC49087088E24FF48041EB48C5
:103B8000FDF7A8F80120FFF7A4FCE748007840F013
:103B90000400E549087079E24FF40051E348FDF76D
:103BA00099F80120FFF795FCDF48007840F0080005
:103BB000DD4908706AE24FF48051DC48FDF78AF86D
:103BC0000120FFF786FCD848007840F01000D64965
:103BD00008705BE24FF40061D448FDF77BF80120E8
:103BE000FFF777FCD048007840F02000CE490870FD
:103BF0004CE24FF48061CD48FDF76CF80120FFF7EF
:103C000068FCC948007840F04000C74908703DE2B0
:103C10004FF40071C548FDF75DF80120FFF759FC2E
:103C2000C148007840F08000BF4908702EE2802132
:103C3000BF48FDF74FF80120FFF74BFCBA4840782A
:103C400040F00100B849487020E24021B848FDF733
:103C500041F80120FFF73DFCB348407840F00200F6
:103C6000B149487012E22021B148FDF733F8012034
:103C7000FFF72FFCAC48407840F00400AA49487098
:103C800004E21021AA48FDF725F80120FFF721FCE6
:103C9000A548407840F00800A3494870F6E10821A3
:103CA000A348FDF717F80120FFF713FC9E48407862
:103CB00040F010009C494870E8E1DFE1D6E1CCE13A
:103CC000C2E1B8E1AFE19FE18FE17FE16FE15FE148
:103CD0004FE13FE130E116E107E1F7E0E7E0D7E04F
:103CE000C7E0B7E0A7E097E088E079E06AE05BE052
:103CF0004CE03DE02DE01DE00EE0FFE702218C48A6
:103D0000FCF7E8FF0120FFF7E4FB8748407840F02C
:103D1000200085494870B9E101218548FCF7DAFFA8
:103D20000120FFF7D6FB8048407840F040007E49F4
:103D30004870ABE14FF480717E48FCF7CBFF012067
:103D4000FFF7C7FB7848407840F08000764948701C
:103D50009CE14FF480717548FCF7BCFF0120FFF730
:103D6000B8FB7148807840F001006F4988708DE1A0
:103D700080216E48FCF7AEFF0120FFF7AAFB6A48DE
:103D8000807840F00200684988707FE140216748F0
:103D9000FCF7A0FF0120FFF79CFB6348807840F010
:103DA00004006149887071E120216048FCF792FFAE
:103DB0000120FFF78EFB5C48807840F008005A49EC
:103DC000887063E110215948FCF784FF0120FFF758
:103DD00080FB5548807840F010005349887055E1C9
:103DE00008215248FCF776FF0120FFF772FB4E488E
:103DF000807840F020004C49887047E104214B480E
:103E0000FCF768FF0120FFF764FB4748807840F02B
:103E100040004549887039E14FF400414448FCF7BF
:103E200059FF0120FFF755FB3F48807840F08000A4
:103E30003D4988702AE14FF480413D48FCF74AFF34
:103E40000120FFF746FB3848C07840F001003649B2
:103E5000C8701BE14FF400513548FCF73BFF0120CF
:103E6000FFF737FB3048C07840F002002E49C87099
:103E70000CE14FF480512E48FCF72CFF0120FFF796
:103E800028FB2948C07840F004002749C870FDE0AD
:103E90004FF400612648FCF71DFF0120FFF719FBD6
:103EA0002148C07840F008001F49C870EEE04FF488
:103EB00080611F48FCF70EFF0120FFF70AFB1A483C
:103EC000C07840F010001849C870DFE04FF400716E
:103ED0001748FCF7FFFE0120FFF7FBFA1248C078F5
:103EE00040F020001049C870D0E010210F48FCF7C6
:103EF000F1FE0120FFF7EDFA0B48C07840F04000DA
:103F00000949C870C2E008210848FCF7E3FE012017
:103F1000FFF7DFFA0448C07840F080000249C8701B
:103F2000B4E00000000C014015000020002001401A
:103F300000140140000801400421FD48FCF7CAFEBE
:103F40000120FFF7C6FAFB48007940F00100F9496B
:103F500008719BE04FF40041F748FCF7BBFE0120DD
:103F6000FFF7B7FAF348007940F00200F149087111
:103F70008CE04FF48041F048FCF7ACFE0120FFF7E5
:103F8000A8FAEC48007940F00400EA4908717DE0A5
:103F90004FF40051E848FCF79DFE0120FFF799FA25
:103FA000E448007940F00800E24908716EE04FF4FF
:103FB0008051E148FCF78EFE0120FFF78AFADD48C8
:103FC000007940F01000DB4908715FE04FF40061B8
:103FD000D948FCF77FFE0120FFF77BFAD54800792E
:103FE00040F02000D349087150E04FF48061D2487E
:103FF000FCF770FE0120FFF76CFACE48007940F024
:104000004000CC49087141E04FF40071CA48FCF708
:1040100061FE0120FFF75DFAC648007940F080009C
:10402000C449087132E08021C448FCF753FE0120E6
:10403000FFF74FFA2AE04FF40061C148FCF74AFE4F
:104040000120FFF746FA21E04FF48041BD48FCF71C
:1040500041FE0120FFF73DFA18E04FF40071B84827
:10406000FCF738FE0120FFF734FA0FE08021B64854
:10407000FCF730FE0120FFF72CFA07E00421AF48DF
:10408000FCF728FE0120FFF724FA00BF00BF10BD97
:1040900010B50446601E2C2824D2DFE800F0162458
:1040A000334251606F7E8D9BA9B7C5F2F0EFEEED04
:1040B000ECEBEAE9E8E7E6E5E4E3E2E1E0DFDEDDB8
:1040C000DCDBDAD9D8D7D6D5D4D320219C48FCF76D
:1040D00003FE0120FFF7FDF99648007800F0FE008E
:1040E000944908707BE24FF400419148FCF7F4FDDD
:1040F0000120FFF7EEF98F48007800F0FD008D49B0
:1041000008706CE24FF480418948FCF7E5FD01201E
:10411000FFF7DFF98748007800F0FB008549087059
:104120005DE24FF400518248FCF7D6FD0120FFF715
:10413000D0F98048007800F0F7007E4908704EE220
:104140004FF480517A48FCF7C7FD0120FFF7C1F911
:104150007848007800F0EF00764908703FE24FF4AD
:1041600000617348FCF7B8FD0120FFF7B2F9714810
:10417000007800F0DF006F49087030E24FF4806192
:104180006B48FCF7A9FD0120FFF7A3F96948007807
:1041900000F0BF006749087021E24FF400716448E5
:1041A000FCF79AFD0120FFF794F96248007800F0CF
:1041B0007F006049087012E280215F48FCF78CFDA7
:1041C0000120FFF786F95B48407800F0FE0059496E
:1041D000487004E240215848FCF77EFD0120FFF7BB
:1041E00078F95448407800F0FD0052494870F6E1F3
:1041F00020215148FCF770FD0120FFF76AF94D4876
:10420000407800F0FB004B494870E8E110214A4833
:10421000FCF762FD0120FFF75CF94648407800F0AA
:10422000F70044494870DAE108214348FCF754FD9F
:104230000120FFF74EF93F48407800F0EF003D497C
:104240004870CCE1C2E1B8E1AFE1A6E196E186E1D8
:1042500076E166E156E146E136E127E118E116E153
:1042600006E1F6E0E6E0D6E0C6E0B6E0A6E097E0DC
:1042700088E079E06AE04CE03DE02DE01DE00EE0F2
:10428000FFE702212C48FCF727FD0120FFF721F969
:104290002848407800F0DF00264948709FE101215E
:1042A0002548FCF719FD0120FFF713F92148407854
:1042B00000F0BF001F49487091E14FF480711F4822
:1042C000FCF70AFD0120FFF704F91A48407800F0D6
:1042D0007F001849487082E14FF480711448FCF760
:1042E000FBFC0120FFF7F5F81248807800F0FE0093
:1042F0001049887073E180210D48FCF7EDFC012026
:10430000FFF7E7F80B48807800F0FD000949887056
:1043100065E140210648FCF7DFFC0120FFF7D9F8F2
:104320000448807800F0FB000249887057E10000E3
:104330000020014015000020001401400008014049
:10434000000C014000180140001001402021A54848
:10435000FCF7C2FC0120FFF7BCF8A348807800F00E
:10436000F700A14988703AE110219E48FCF7B4FC9F
:104370000120FFF7AEF89C48807800F0EF009A49E2
:1043800088702CE108219748FCF7A6FC0120FFF774
:10439000A0F89548807800F0DF00934988701EE10E
:1043A00004219048FCF798FC0120FFF792F88E4812
:1043B000807800F0BF008C49887010E14FF4004114
:1043C0008A48FCF789FC0120FFF783F8864880784B
:1043D00000F07F008449887001E14FF480418348F8
:1043E000FCF77AFC0120FFF774F87F48C07800F0F2
:1043F000FE007D49C870F2E04FF400517B48FCF7A5
:104400006BFC0120FFF765F87748C07800F0FD00ED
:104410007549C870E3E04FF480517448FCF75CFCC8
:104420000120FFF756F87048C07800F0FB006E4995
:10443000C870D4E04FF400616C48FCF74DFC0120DB
:10444000FFF747F86848C07800F0F7006649C87081
:10445000C5E04FF480616548FCF73EFC0120FFF7A2
:1044600038F86148C07800F0EF005F49C870B6E0E6
:104470004FF400715D48FCF72FFC0120FFF729F88D
:104480005948C07800F0DF005749C870A7E0A6E09F
:1044900008215448FCF720FC0120FFF71AF8524885
:1044A000C07800F07F005049C87098E004214D4862
:1044B000FCF712FC0120FFF70CF84B48007900F0E4
:1044C000FE00494908718AE04FF400414748FCF773
:1044D00003FC0120FEF7FDFF4348007900F0FD00DA
:1044E000414908717BE04FF480414048FCF7F4FB00
:1044F0000120FEF7EEFF3C48007900F0FB003A494E
:1045000008716CE04FF400513848FCF7E5FB0120DE
:10451000FEF7DFFF3448007900F0F70032490871F8
:104520005DE04FF480513148FCF7D6FB0120FEF7E7
:10453000D0FF2D48007900F0EF002B4908714EE0C4
:104540004FF400612948FCF7C7FB0120FEF7C1FFCB
:104550002548007900F0DF00234908713FE04FF45F
:1045600080612248FCF7B8FB0120FEF7B2FF1E482D
:10457000007900F0BF001C49087130E04FF4007171
:104580001A48FCF7A9FB0120FEF7A3FF16480079A3
:1045900000F07F001449087121E080211448FCF7E5
:1045A0009BFB0120FEF795FF19E002211048FCF764
:1045B00093FB0120FEF78DFF11E04FF480410D4881
:1045C000FCF78AFB0120FEF784FF08E04FF400713E
:1045D0000948FCF781FB0120FEF77BFF00BF00BF0D
:1045E00010BD000000200140150000200014014013
:1045F0000008014000180140000C014010B5FCF714
:10460000D7FD4FF48030FCF7F2FDFCF72FFE044697
:10461000012C24D11020FBF7C7FF0220FBF7AEFFCF
:104620000020FCF76CFE0020FCF77BFEA002FCF7EC
:104630006FFE4FF4E0112004FCF744FE0120FCF76C
:104640004DFE00BF3920FCF7F5FD0028FAD002200E
:10465000FCF747FE00BFFCF74DFE0828FBD1012107
:1046600044F6FD10FCF714FF01211F20FCF71DFF8D
:104670000121FE48FCF752FB0121FD48FCF74EFBEF
:1046800001210846FCF7F7FE01210807FCF70DFFA2
:1046900001214806FCF709FF10BD0EB54FF400706C
:1046A000ADF8000003208DF8020018208DF80300FB
:1046B0006946F048FCF762FA4FF48060ADF80000FC
:1046C00004208DF803006946EA48FCF757FA802079
:1046D000ADF8000003208DF8020010208DF80300D3
:1046E0006946E548FCF74AFA4FF40060ADF800006F
:1046F00048208DF803006946DE48FCF73FFA4FF486
:104700008050ADF8000018208DF803006946D948A4
:10471000FCF734FA04208DF807001020ADF80400EF
:1047200001A9D448FCF72AFA43F20300ADF80400CB
:1047300001A9D248FCF722FA42F23F00ADF804008A
:1047400001A9CF48FCF71AFA41F6FC70ADF8040055
:1047500001A9CC48FCF712FA4FF65F70ADF80400DF
:1047600001A9C548FCF70AFA0320ADF8040001A925
:10477000C548FCF703FA10208DF80B0003208DF8D4
:104780000A004FF48070ADF8080002A9B948FCF7A0
:10479000F5F94FF48071B748FCF79CFA2020ADF88A
:1047A000080002A9B548FCF7E9F92021B348FCF755
:1047B00091FA4FF4F850ADF8080002A9B048FCF7A0
:1047C000DDF94FF4F851AE48FCF784FA4FF6FF607C
:1047D000ADF8080002A9AD48FCF7D0F94FF6FF612B
:1047E000AA48FCF777FA0320ADF8080002A9A5480B
:1047F000FCF7C4F90321A348FCF76CFA4FF6FC70F0
:10480000ADF8080002A9A048FCF7B8F94FF6FC7112
:104810009D48FCF75FFA2020ADF8080002A99548F2
:10482000FCF7ACF910208DF80B0003208DF80A007E
:104830004FF48040ADF8080002A99248FCF79EF9B9
:1048400018208DF80B0003208DF80A004FF400505B
:10485000ADF8080002A98B48FCF790F904208DF808
:1048600007004003ADF8040001A98648FCF786F96B
:104870004FF48070ADF8040001A98448FCF77EF97C
:104880000EBD1CB5FDF740FE6846FDF7A2FE4FF4D5
:104890008040009000208DF804000C208DF8050069
:1048A00001208DF806006846FDF73CFE0E21012030
:1048B000FCF769FA1CBD1CB5FDF726FE6846FDF73E
:1048C00088FE09210420FCF75EFA0A210420FCF787
:1048D0005AFA0B210420FCF756FA0C210420FCF7AD
:1048E00052FA4FF40070009000208DF804000C2064
:1048F0008DF8050001208DF806006846FDF712FED0
:104900004FF48060009000208DF804000C208DF89A
:10491000050001208DF806006846FDF703FE4FF400
:104920000060009000208DF804000C208DF8050038
:1049300001208DF806006846FDF7F4FD4FF4805025
:10494000009000208DF804000C208DF80500012057
:104950008DF806006846FDF7E5FD1CBD0EB54FF469
:104960007A70ADF8040040F2CF20ADF800000020CE
:10497000ADF80600ADF8020069464548FDF759F864
:10498000012211464248FDF7F5FA01214048FDF7A2
:10499000D6FA0EBD08B500214FF00060FCF714FBFD
:1049A0004FF48060FCF759FA19208DF800000120BF
:1049B0008DF8010005208DF8020001208DF803001C
:1049C0006846FCF750FA1C208DF8000001208DF895
:1049D000010003208DF8020001208DF803006846D5
:1049E000FCF741FA1D208DF8000001208DF8010030
:1049F00002208DF8020001208DF803006846FCF7C4
:104A000032FA1E208DF8000001208DF801000420EC
:104A10008DF8020001208DF803006846FCF723FAA8
:104A20002C208DF8000001208DF8010000208DF869
:104A3000020001208DF803006846FCF714FA3220CA
:104A40008DF8000001208DF801008DF802008DF82E
:104A500003006846FCF707FA36208DF800000220B4
:104A60008DF801008DF80200012013E0000218000B
:104A7000C000160000080140001C0140000C01406D
:104A800000100140001801400020014000140140C6
:104A9000001000408DF803006846FCF7E4F925207B
:104AA0008DF8000002208DF8010001208DF8020031
:104AB0008DF803006846FCF7D6F917208DF8000042
:104AC00000208DF8010002208DF8020001208DF8F1
:104AD00003006846FCF7C7F928208DF80000002085
:104AE0008DF8010003208DF8020001208DF80300ED
:104AF0006846FCF7B8F914208DF8000002208DF804
:104B0000010004208DF8020001208DF803006846A2
:104B1000FCF7A9F908BD00B587B00020ADF8140076
:104B2000ADF816004FF40070ADF818000020ADF895
:104B30001A0005A93248FBF709FC4FF4E130019057
:104B40000020ADF80800ADF80A00ADF80C00ADF893
:104B500010000C20ADF80E0001A92948FBF79FFBBF
:104B6000012240F225512648FBF713FC012124487D
:104B7000FBF703FC07B000BD00B587B004A8FDF744
:104B800081FE00208DF810008DF811008DF81200C4
:104B90008DF813008DF814008DF815008DF81600AF
:104BA0008DF8170002208DF8180004208DF81900E8
:104BB000ADF81A0004A8FDF752FD00208DF80000A2
:104BC0008DF8010001208DF802000020ADF80400EE
:104BD000ADF80600ADF80800ADF80A00ADF80C001D
:104BE00001208DF80E006846FDF7CBFD0220FEF790
:104BF000D4F801210220FDF755FE07B000BD0000EA
:104C00000038014000B587B06846FDF773F903A886
:104C1000FDF779F90020ADF80600ADF8020042F288
:104C20000F70ADF804000120ADF800007020ADF861
:104C30000C000120ADF80E0041F28830ADF81200F2
:104C40000020ADF814004FF08040FCF787FE694665
:104C50004FF08040FCF7EDFE01218807FDF751FC85
:104C6000012211469007FDF785F903A94FF0804016
:104C7000FCF7F8FE01218807FDF76DF9AF48FCF756
:104C80006DFE6946AD48FCF7D4FE0121AB48FDF747
:104C900038FC01221146A948FDF76CF903A9A74881
:104CA000FCF7E0FE0121A548FDF755F9A448FCF703
:104CB00055FE6946A248FCF7BCFE0121A048FDF75D
:104CC00020FC012211469E48FDF754F903A99C4897
:104CD000FCF749FF01219A48FDF73DF90020ADF8A6
:104CE0000600ADF8020042F20F70ADF8040001209A
:104CF000ADF800007020ADF80C000120ADF80E00FA
:104D000041F28830ADF812000020ADF814008D4853
:104D1000FCF724FE69468B48FCF78BFE012189488D
:104D2000FDF7EFFB012211468648FDF723F903A9A1
:104D30008448FCF718FF01218248FDF70CF9002197
:104D40004FF08040FDF7FBF800217C48FDF7F7F8B5
:104D500000217C48FDF7F3F800217948FDF7EFF8D2
:104D600007B000BD00B587B06846FDF7C3F803A8DB
:104D7000FDF7C9F80020ADF80600ADF8020042F2D8
:104D80000F70ADF804000120ADF800007020ADF800
:104D90000C000120ADF80E0041F28830ADF8120091
:104DA0000020ADF814006548FCF7D8FD694663485B
:104DB000FCF73FFE01216148FDF7A3FB01221146EC
:104DC0005E48FDF7D7F803A95C48FCF74BFE0121CC
:104DD0005A48FDF7C0F85A48FCF7C0FD69465848E4
:104DE000FCF727FE01215648FDF78BFB01221146F7
:104DF0005348FDF7BFF803A95148FCF7B4FE012161
:104E00004F48FDF7A8F84FF08040FCF7A7FD694632
:104E10004FF08040FCF70DFE01218807FDF771FB84
:104E2000012211469007FDF7A5F803A94FF0804035
:104E3000FCF799FE01218807FDF78DF84248FCF741
:104E40008DFD69464048FCF7F4FD01213E48FDF721
:104E500058FB012211463C48FDF78CF803A93A485B
:104E6000FCF7C9FE01213848FDF775F80020ADF8C0
:104E70000600ADF8020042F20F70ADF80400012008
:104E8000ADF8000000208DF808007020ADF80C008F
:104E90000120ADF80E0041F28830ADF8120000207C
:104EA000ADF814002748FCF759FD69462548FCF782
:104EB000C0FD01212348FDF724FB012211462148B2
:104EC000FDF758F803A91F48FCF74DFE01211D48C6
:104ED000FDF741F81D48FCF741FD69461B48FCF70A
:104EE000A8FD01211948FDF70CFB012211461748C6
:104EF000FDF740F803A91548FCF7B4FD012113485C
:104F0000FDF729F800210D48FDF719F800210D489B
:104F1000FDF715F800210A48FDF711F800214FF0C0
:104F20008040FDF70CF800210748FDF708F8002144
:104F30000648FDF704F807B000BD0000000400407B
:104F400000080040002C0140000C004000340140EB
:104F500070B50546002405E0601CC4B2C82C01DD14
:104F6000002070BD02213A48FCF747FC0028F3D02E
:104F700029463748FCF7EEFB002405E0601CC4B26C
:104F8000C82C01DD0020ECE701213148FCF735FC9D
:104F90000028F3D02E48FCF7DFFBC0B2E1E700B5F4
:104FA00087B001210820FCF773FA01218803FCF780
:104FB0007CFA4FF46040ADF8180018208DF81B0003
:104FC00003208DF81A0006A92248FBF7D7FD4FF4FD
:104FD00060412048FBF77EFE0020ADF804004FF44E
:104FE0008270ADF806000020ADF808000220ADF890
:104FF0000A000120ADF80C004002ADF80E00382088
:10500000ADF810000020ADF812000720ADF8140034
:1050100001A90F48FCF7D0FA01210D48FCF769FB04
:10502000FF20FFF795FF07B000BD10B50446084804
:1050300000884FF6C7710840054908800846008877
:105040002043088001210248FCF753FB10BD0000FB
:1050500000380040000C014010B500240020CF496A
:1050600008609020FFF774FF0020FFF771FF002019
:10507000FFF76EFF0020FFF76BFFFF20FFF768FFD1
:1050800044EA0024FF20FFF763FF04430120C449E2
:10509000C1F8B001204610BD08B501210820FCF779
:1050A000F7F94FF48050ADF8000010208DF80300A0
:1050B00003208DF802006946BA48FBF75FFD4FF404
:1050C0008051B848FBF706FE0120B4490860FFF79D
:1050D00066FF0020FFF7A9FFFFF7BEFFB249088077
:1050E00008BD10B500240020AC4908600520FFF77A
:1050F0002FFFFF20FFF72CFF04460120A849C1F82D
:10510000B001204610BD10B504460020A349086038
:105110000120FFF71DFF2046FFF71AFF0120A049DD
:10512000C1F8B00110BD10B500209C4908600620F0
:10513000FFF70EFF01209A49C1F8B00110BD10B56C
:105140000020964908600420FFF702FF01209449DF
:10515000C1F8B00110BD2DE9F04106460C461746D6
:1051600000208E4908600320FFF7F2FEC4F30740D9
:10517000FFF7EEFEC4F30720FFF7EAFEE0B2FFF709
:10518000E7FE002505E0FF20FFF7E2FE7055681CF2
:1051900085B2BD42F7DB012080490860BDE8F0819F
:1051A00010B500BFFFF79DFF00F001000028F9D106
:1051B00010BD2DE9F04106460C461746FFF7B3FF38
:1051C0000020764908600220FFF7C2FEC4F30740C2
:1051D000FFF7BEFEC4F30720FFF7BAFEE0B2FFF709
:1051E000B7FE002504E0705DFFF7B2FE681C85B2D3
:1051F000BD42F8DB012069490860FFF7D1FFBDE837
:10520000F0812DE9F04107460E461446F0B2C0F594
:105210008075AC4200DC254612E02A46314638460D
:10522000FFF7C7FFAC4200D10BE02F442E44601BB8
:1052300084B2B4F5807F02DD4FF4807500E025462E
:10524000EBE700BFBDE8F08110B504462403FFF78B
:105250006AFFFFF7A5FF0020504908602020FFF7F4
:1052600077FEC4F30740FFF773FEC4F30720FFF790
:105270006FFEE0B2FFF76CFE01204949C1F8B001B2
:10528000FFF78EFF10BD2DE9F05F81460F461646F1
:10529000DFF818B14FEA1738C7F30B0ACAF5805484
:1052A000A64200DC344644E04FEA08314FF4805215
:1052B0005846FFF750FF002508E00AEB05001BF8F1
:1052C0000000FF2800D003E0681C85B2A542F4DB93
:1052D00000BFA54216DA4046FFF7B6FF002507E0FB
:1052E00019F8050005EB0A010BF80100681C85B2EE
:1052F000A542F5DB4FEA08314FF480525846FFF7DC
:1053000080FF04E0224639464846FFF77AFFA6426E
:1053100000D10FE008F101084FF0000AA144274432
:10532000301B86B2B6F5805F02DD4FF4805400E09A
:105330003446B9E700BFBDE8F09F10B5FFF7F3FEB4
:10534000FFF72EFF002015490860C720FFF700FE79
:1053500001201349C1F8B001FFF722FF10BD10B5BD
:1053600000200E490860B920FFF7F2FD01200C492A
:10537000C1F8B0010320FEF7CCF810BD10B5002035
:1053800006490860AB20FFF7E3FD01200449C1F89E
:10539000B0010320FEF7BDF810BD0000B08121422E
:1053A00000802142000C01401A000020880A0020E1
:1053B00010B5002400BF04E02046FEF7A3FB601CEC
:1053C000C4B2232CF8DBF7480078062872DAF648D6
:1053D000F4490978405C04286DD005DC58B10128F7
:1053E0006AD002280FD1A6E0082866D010282AD05B
:1053F0002028F7D108E0EB480078401CE949087004
:105400000020EA490870D4E0E9480068E949884288
:1054100008D1E4480078401CE24908700020E349C4
:1054200008700FE0E148007860B90120DF4908709A
:10543000DD48401E006A642100FB01F2DD490020C6
:1054400009F0BBFFB5E0DA488068DA49884208D144
:10545000D4480078401CD34908700020D349087014
:1054600027E0D248007820BB0120D0490870D248FC
:10547000006864214843CC49491E896AB0FBF1F0B9
:10548000CE4988600846806844F25061884202D95B
:105490000846CA498860C9488068B42802D2B42046
:1054A000C6498860C048401EC249826A022009F08D
:1054B00084FF7EE07EE01FE05CE0BD484068BD49BF
:1054C000884208D1B7480078401CB64908700020CF
:1054D000B64908700FE0B548007860B90120B349BB
:1054E0000870B148401E406A642100FB01F2B149D6
:1054F000012009F062FF5CE0AD48C068AD49884218
:1055000008D1A8480078401CA64908700020A74987
:1055100008700FE0A548007860B90120A349087021
:10552000A148401EC06A642100FB01F2A14903208A
:1055300009F043FF3DE09E4800699E49884208D13A
:1055400098480078401C97490870002097490870D7
:105550000FE09648007860B901209449087092489D
:10556000401E006B642100FB01F29249042009F007
:1055700024FF1EE08E4840698E49884208D1894840
:105580000078401C874908700020884908700FE0A7
:105590008648007860B90120844908708248401E1E
:1055A000406B642100FB01F28249052009F005FFF0
:1055B00000BF3DE000200BF063FA00208049087036
:1055C00001200BF05DFA00207D49487002200BF0AD
:1055D00057FA00207A49887003200BF051FA002016
:1055E0007749C87004200BF04BFA00207449087109
:1055F00005200BF045FA002071494871694908708F
:105600006A49087001206F4908706F48007818B126
:1056100000206D49087002E000206C4908700020ED
:105620006B49087001206B49087000206A490870B6
:1056300010BD022069490870002069490870694955
:1056400008706449087068490870684908706849BA
:1056500008706849087068490870684908705B49B3
:10566000087067490870674908706749087067499A
:10567000086067490870674908806749087067498A
:10568000087067490870674908606749086067499A
:10569000087067490870674908706749087067496A
:1056A0000870674908706749087067490870704753
:1056B00001204D4908704D4908704D4908704D4909
:1056C00008700020614908706149087043490870FA
:1056D000604800884FF6FF5108405E4908805E48E8
:1056E000007800F0BF0040F080005B490870704710
:1056F00000205A490870012038490870564800783F
:1057000000F07F0040F0400053490870704700B53A
:10571000FFF78FFF5048007800F03F004E490870B7
:1057200000BD10B5002400BF0FE004EB84004C491D
:1057300001EB8000007C18B101204A49087006E0A6
:10574000002048490870601CC4B2032CEDDB00BF88
:1057500044480078012823D12248007801281FD12D
:10576000002488E004EB84003D4901EB8000007CCC
:10577000A8B10F48006804EB8401394A52F821109F
:10578000884276D30A48006804EB840102EB810169
:10579000896888426DD8601C334908706EE065E006
:1057A0009EE066E0340100209D1E00208400002061
:1057B000E401002040420F00FC01002034020020E0
:1057C0001F0A002078000020110100205C01002049
:1057D00077000020100100200F010020350000207C
:1057E000E3000020DE000020260000202100002031
:1057F00022000020230000208E0000208F000020C7
:10580000ED0000208D0100208C010020800100208F
:10581000840100205E0100209101002092010020FF
:10582000930100201401002098010020970100201E
:105830007401002072010020730100206D0100201E
:10584000760100200C0A00200E0A0020250000200E
:10585000360000202C0100201A0100204200002008
:10586000601E002000010020040100200020FE49ED
:105870000870601CC4B2032CFFF674AF00BFFA4876
:10588000007800B3F9484168F7480078401E00EB03
:105890008000F74A02EB8000C06881420BD8F348D1
:1058A0004168F1480078401E00EB800002EB800068
:1058B0004068814203D20120EE49087013E00020C5
:1058C000EC4908700FE0E9484068EB49884203D989
:1058D0000120E849087006E00020E649087002E06F
:1058E0000020E1490870E348007828B3E3480078D5
:1058F00040F00200E14908700020E1490870E149E8
:105900000870E1490870E1490870E1490870E1490F
:1059100008700BF003F901200BF000F90021DE48BC
:10592000FCF70DFB03200BF0F9F804200BF0F6F860
:1059300005200BF0F3F805E0D048007800F0FD00FA
:10594000CE49087010BD70B504460D461646022DAE
:105950002CD1C64850F82500D0490860D0480068CE
:10596000A0422DD8CF480068844229D80846006854
:1059700084420BD90120CC494855C8480068201AF8
:10598000CA490860284605F0C5FC19E0C34800680C
:10599000844215D20020C4494855C0480068001B05
:1059A000C2490860284605F0B5FC09E0B248201A53
:1059B000BF49086032460846016828460AF0CEFF13
:1059C00070BD70B505460C4616463C2D02D02846E3
:1059D000FEF798F83C2C0CD02046FEF759FB0F2E12
:1059E00007D1B4480078401CB24908700120B24980
:1059F000085570BD00200021B04A1180B04A1170D6
:105A0000B049097800293CDDAE490978082916DD3E
:105A1000AC490978491E01EB4101AB4A02EB810117
:105A20004989A64A1180A7490978491E01EB41011D
:105A3000A54A02EB8101097AA14A117021E00020F8
:105A40001CE000EB4001A04A02EB810149789D4A2D
:105A50001278914210D100EB40019B4A02EB810188
:105A60004989964A118000EB4001974A02EB810177
:105A7000097A934A117003E0411CC8B20828E0DBA0
:105A800000BF704710B50024904840780A287DD2A6
:105A9000DFE800F07C050C13333E5FE9E8E7032004
:105AA0008B49087001208B49087031E20220884937
:105AB00008700120884908702AE288480078012887
:105AC0001AD187480078B8B9012086490870804803
:105AD0000078022806D101207F49087000207D4906
