:020000040800F2
:10000000B89F002065010008A51301083D470008BE
:10001000A1130108E50E000895E2010800000000A8
:10002000000000000000000000000000D360010894
:10003000751D000800000000FD1901087D01000881
:1000400085E80108BD190108B5870108352C0108AC
:10005000F5290008452B010849280008EF28000869
:10006000F1280008F3280008F5280008051A000800
:10007000071A0008091A00080D1A0008591A000882
:100080005B1A00085D1A0008ED0700087F010008F0
:100090007F0100087F0100087F010008F7280008A1
:1000A000F9890108FF890108FD890108FB89010818
:1000B000018A0108098A0108258A01087F4700088A
:1000C0007D4700088347000881470008CD6001088C
:1000D000CF600108D59201082D980108899A01087E
:1000E000ED280008A52B01087F0100080000000092
:1000F0000000000000000000000000000000000000
:100100000000000000000000058C0108D16001081B
:100110008591010887910108078C0108098C010865
:100120005F1A0008611A0008631A00087F010008BE
:100130007F0100087F0100087F0100087F0100089F
:100140007F0100087F0100087F01000849190108AC
:10015000DFF80CD000F0B8FA00480047ED060208BE
:10016000B89F00200648804706480047FEE7FEE7A4
:10017000FEE7FEE7FEE7FEE7FEE7FEE7FEE7FEE757
:10018000A58401085101000840EA01039B0703D040
:1001900009E008C9121F08C0042AFAD203E011F8C6
:1001A000013B00F8013B521EF9D27047D2B201E088
:1001B00000F8012B491EFBD270470022F6E710B56C
:1001C00013460A4604461946FFF7F0FF204610BDC5
:1001D0002DE9FE4F804681EA0300C00F0C460090D7
:1001E00021F0004123F00045B8EB0200A94105D2FF
:1001F0004046214690461C460B46024623F00040EE
:10020000104347D0270DC7F30A00C3F30A510290E9
:10021000401A019040286BDAC3F3130040F4801BAE
:100220000098924620B10023D2EB030A63EB0B0B3C
:1002300001985946C0F14002504600F019F90646AF
:100240000D4650465946019A00F031F910EB08006E
:100250006141002487EA115284EAE7731A4340D0CF
:10026000009A62B3019A012A4FEA075215DC001B7B
:1002700061EB02014FF0004202EA0752CDE9004271
:10028000001C41F5801132462B4600F031F903B0D5
:10029000BDE8F08F40462146F9E7001B61EB020103
:1002A000001C41F5801300185B412018A2F50017CF
:1002B00047EB030140EAD570B6196D4111E06D08B6
:1002C0004FEA360645EAC0754FEA0752001B61EB5C
:1002D0000201001C41F5801149084FEA3000001965
:1002E000514132462B4603B0BDE8F04F00F0F1B863
:1002F0000098012240000023D0EB020263EBE07380
:10030000009821464FEAE074B8EB000061EB04016D
:10031000E9E783F000435BE781F0004158E72DE90E
:10032000FE4F81EA030404F0004421F000410094F0
:100330004FF0000B23F0004350EA01045ED052EA74
:1003400003045BD0C3F30A54C1F30A552C44A4F24E
:10035000F3340194A0FB0254C1F3130141F4801162
:10036000C3F3130343F4801301FB024400FB034E69
:10037000840A970A44EA815447EA8357A4FB076832
:1003800002958D0A05FB07854FEA932C04FB0C545C
:100390002705029D4FEA065847EA1637B5EB0805D0
:1003A0006EEB070C870E920E47EA811742EA831222
:1003B000A7FB0201B6EB0B0164EB00042B0D43EA33
:1003C0000C335E1844EB1C50DA465146E7FB020141
:1003D000C5F313044FEA0B3343EA14534FEA0432D4
:1003E000019C43EA0603A4F10C040294009CCDE9AD
:1003F00000B400F07DF803B0BDE8F08F00200146A6
:10040000F9E70EB5C10F80EAE0700844CA07002181
:1004100040F233438DE80E000A460B4600F068F8C0
:1004200003B000BD0EB540F2334102910021CDE989
:1004300000110A460B4600F05BF803B000BDC1F3A3
:100440000A5210B5C1F3130140F2FF3341F4801199
:100450009A4201DA002010BD40F233439A42A2F2E0
:10046000334203DC524200F012F810BD904010BD40
:10047000202A04DB203A00FA02F100207047914064
:10048000C2F1200320FA03F3194390407047202A59
:1004900004DB203A21FA02F00021704721FA02F32E
:1004A000D040C2F120029140084319467047202AEB
:1004B00006DBCB17203A41FA02F043EAE07306E08C
:1004C00041FA02F3D040C2F120029140084319469C
:1004D000704710B5141E73F1000408DA401C41F196
:1004E000000192185B411A4301D120F0010010BDB8
:1004F0002DE9F04D92469B4611B1B1FA81F202E02E
:10050000B0FA80F220329046FFF7B2FF04460F4661
:1005100040EA0A0041EA0B0153465A46084313D009
:10052000114653EA010019D0C8F140025046FFF7C6
:10053000AEFF05460E46504659464246FFF798FF25
:10054000084305D0012004E020463946BDE8F08D7F
:100550000020054346EAE0762C4337430A986305BA
:10056000E40AA0EB08000022FD0A44EA47540A30DE
:1005700002D500200146E9E7010510196941DDE9CE
:10058000084500196941BDE8F04DA2E72DE9F04D9D
:1005900081EA030404F0004B21F0004514464FF0BB
:1005A000000A23F0004150EA050220D054EA01027B
:1005B0001DD0C5F30A570246C5F31303C1F3130058
:1005C000C1F30A5640F4801543F48013A7EB0608E4
:1005D000101BD64608F2FD3873EB050002D308F174
:1005E000010801E092185B41B8F1000F03DA002026
:1005F0000146BDE8F08D00204FF480110646844688
:100600000EE0171B73EB050705D3121B63EB050305
:1006100006434CEA010C49084FEA300092185B414E
:1006200050EA0107EDD152EA030012D082EA040039
:1006300083EA0501084305D0101BAB4106D2012215
:10064000002306E000224FF0004302E06FF00102B9
:1006500053101AEB06004CEB085110EB0A0041EB6B
:100660000B01BDE8F04DFFF734BF70B521F000433A
:1006700003430CD0C1F30A550024D5EB040564EB09
:100680000403D617AD1AB34102DB0020014670BD4A
:10069000201841EB025170BD30B5041E71F1000409
:1006A00004DB4FF00044404264EB0101141E73F17F
:1006B000000405DB1C464FF00043524263EB040389
:1006C000994208BF904230BD064C074D06E0E068F5
:1006D00040F0010394E8070098471034AC42F6D389
:1006E000FFF73AFD18160208381602082DE9F04DFA
:1006F00000231A461B1A8A4103DB00200146BDE88D
:10070000F08DC1F30A52C1F3130141F480154FF08B
:10071000000BD10702D100186D41521E002704467C
:1007200040F2FF11384601EB620A3E46804602461F
:1007300000204FF48011FFF7AAFEC2197141BB18C7
:1007400046EB0100B4EB030C75EB000C04D3E41A88
:1007500065EB000517460E46241908F101006D41AE
:1007600080463428E3DDF91946EB0600091BA84151
:1007700003D24FF0FF32134601E0002213461BEB79
:10078000070046EB0A51BDE8F04DFFF7A2BE70B579
:100790008D1810F8014B14F0030201D110F8012B51
:1007A000231106D110F8013B03E010F8016B01F8AA
:1007B000016B521EF9D1ABB110F8012B04F00C04FF
:1007C0008A1A0C2C03D0A2EB84129B1C08E010F8B0
:1007D000014BA2EB0422F8E712F8014B01F8014BA0
:1007E0005B1EF9D5A942D4D3002070BD704770B507
:1007F00006460C46154608E03046721C96B200F0DC
:1008000007F804F8010B681E85B2002DF4D170BD05
:1008100070B50446002604F08FF8A02004F058F8C4
:1008200004F0D6F8201204F053F804F0D1F825466D
:10083000E11704EB11610912A4EB0121C8B204F025
:1008400047F804F0C5F804F077F8A12004F040F868
:1008500004F0BEF8002004F003F8064604F092F815
:10086000304670BD2DE9F04104460E46174600257E
:1008700007E0705D214600F008F8601C84B2681C37
:1008800085B2BD42F5DBBDE8F08170B506460C4689
:1008900004F052F8A02004F01BF804F099F820129C
:1008A00004F016F804F094F82546E11704EB116102
:1008B0000912A4EB0121C8B204F00AF804F088F888
:1008C000304604F005F804F083F804F05BF80220E9
:1008D00001F08EFA70BD000010B5044604EB440030
:1008E000F54911F82000C4EBC40101EB4101F34AC2
:1008F00050543220C4EBC40101EB41011144487053
:100900003021C4EBC40000EB40001044817004EBC4
:100910004400E94901EB80008078C0F303103030D7
:10092000C4EBC40101EB41011144C87004EB440065
:10093000E14901EB8000807800F00F003030C4EB1B
:10094000C40101EB4101114408712D21C4EBC40025
:1009500000EB40001044417104EB4400D64901EB28
:1009600080000079302101EB1010C4EBC40101EBD1
:1009700041011144887104EB4400CF4901EB800030
:10098000007900F00F003030C4EBC40101EB4101ED
:100990001144C8712D21C4EBC40000EB4000104489
:1009A000017204EB4400C44901EB8000407930211E
:1009B00001EB1010C4EBC40101EB4101114448727A
:1009C00004EB4400BC4901EB8000407900F00F00CB
:1009D0003030C4EBC40101EB41011144887204EBD7
:1009E0004400B54901EB8000C079302101EB1010C3
:1009F000C4EBC40101EB41011144C87204EB440093
:100A0000AD4901EB8000C07900F00F003030C4EB3D
:100A1000C40101EB4101114408733A21C4EBC40045
:100A200000EB40001044417304EB4400A24901EB89
:100A30008000007A302101EB1010C4EBC40101EBFF
:100A400041011144887304EB44009B4901EB800091
:100A5000007A00F00F003030C4EBC40101EB41011B
:100A60001144C8733A21C4EBC40000EB40001044A9
:100A7000017404EB4400904901EB8000407A30217E
:100A800001EB1010C4EBC40101EB410111444874A7
:100A900004EB4400884901EB8000407A00F00F002D
:100AA0003030C4EBC40101EB41011144887404EB04
:100AB0004400814901EB8000807AC4EBC40101EB62
:100AC00041011144087500207D49087028E030205C
:100AD0007B490978C1EBC10101EB4101774A11441F
:100AE000C87477480078C0EBC00000EB40001146A6
:100AF0000844007DC4EBC40101EB41011144097DB0
:100B0000884208D131206E490978C1EBC10101EB5F
:100B100041011144C8746A480078401C6849087053
:100B200067480078A042D2DDC4EBC40000EB40006F
:100B30006249085C63490870C4EBC40000EB4000E4
:100B40005E49084440785F494870C4EBC40000EB3C
:100B500040005A49084480785A498870C4EBC40060
:100B600000EB400055490844C0785649C870C4EBB2
:100B7000C40000EB40005149084400795149087114
:100B8000C4EBC40000EB40004C49084440794D4997
:100B90004871C4EBC40000EB400048490844807928
:100BA00048498871C4EBC40000EB40004349084445
:100BB000C0794449C871C4EBC40000EB40003F4910
:100BC0000844007A3F490872C4EBC40000EB4000BF
:100BD0003A490844407A3B494872C4EBC40000EBF0
:100BE000400036490844807A36498872C4EBC40014
:100BF00000EB400031490844C07A3249C872C4EB66
:100C0000C40000EB40002D490844007B2D490873C7
:100C1000C4EBC40000EB400028490844407B29494C
:100C20004873C4EBC40000EB400024490844807BB7
:100C300024498873C4EBC40000EB40001F490844FA
:100C4000C07B2049C873C4EBC40000EB40001B49C3
:100C50000844007C1B490874C4EBC40000EB40004E
:100C600016490844407C17494874C4EBC40000EBA3
:100C7000400012490844807C12498874C4EBC400C7
:100C800000EB40000D490844C07C0E49C874C4EB19
:100C9000C40000EB400009490844007D094908757B
:100CA000C4EBC40101EB410101F5007015220549B7
:100CB000FFF7D8FD10BD0000EC6F0020DC700020B5
:100CC000C64500200649002010B52C4800780A28A7
:100CD00051D2DFE800F050050B121E284748504C57
:100CE0000120274908702749087045E00020244961
:100CF00008700220234908703EE001202249087054
:100D000000202249087022490870032021490870F8
:100D100032E000201C49087001201C4908700420A2
:100D20001C49087028E0002017490870174908700E
:100D300001201749087005201649087016480078E8
:100D400078B100201449087007201249087013492F
:100D500008700A460C21012018F03EFC5920104969
:100D6000087009E008E001200E49087004E0012045
:100D70000C49087000E000BF00BF10BD20460020F5
:100D80006400002031460020680000206900002037
:100D90006A00002030460020CA450020CA480020D2
:100DA000020000207800002010B501460846CC174C
:100DB00001EB1474C4F30712CC1701EB1474241163
:100DC000A1EB0414E3B202EB820003EB4000C0B2DB
:100DD00010BD10B5012011F0AFFD002011F0ACFDE9
:100DE00010BD000008B501460020009003480090A7
:100DF0000098084400900098008808BD006C0040EE
:100E000008B500220092044A0092009A024400921F
:100E1000009A116008BD0000006C004070B50546E6
:100E20000C4608480560204600F00EF800BF054853
:100E300000680028FBD100214FF0804017F0F7FE3A
:100E400070BD0000CC4700203EB5044600214FF0A5
:100E5000804017F0ECFE00220121880717F087FF81
:100E6000022C03D10B20ADF8040005E0012C03D1C6
:100E700042F6DF60ADF804000520ADF80000002068
:100E8000ADF80600ADF8020069464FF0804017F05B
:100E9000A3FF0121880717F0C7FE0121880717F07B
:100EA000B4FE01221146900717F061FF0121880767
:100EB00017F0BDFE3EBD000010B50446A520084950
:100EC00008705A204870032088708020C870012064
:100ED000087108464471062119F0AEF810BD0000F3
:100EE000B048002000BFFEE710B50446A520084921
:100EF00008705A204870032088708020C870022033
:100F0000087108464471062119F096F810BD0000DA
:100F1000B04800202DE9F047002500260027AC4608
:100F2000002300240020002101228046DFF8E497FE
:100F300089F80080DFF8E08798F8008008EB8808DF
:100F4000DFF8D89709EBC80898F80180B8F1000FCE
:100F500019D0DFF8C48798F8008008EB880809EBFF
:100F6000C80898F80280B8F1010F2DD1DFF8A887E2
:100F700098F8008008EB880809EBC80898F8038007
:100F8000B8F1010F20D1DFF8908798F8008008EBC6
:100F90008808DFF8889709EBC808D8F81080DFF8D0
:100FA0008097C9F80080DFF8708798F8008008EB18
:100FB0008808DFF8689709EBC808D8F81480DFF8CC
:100FC0006097C9F80480A3E3DFF84C8798F80080A5
:100FD00008EB8808DFF8449709EBC80898F8018007
:100FE000B8F1010FEFD1DFF8308798F8008008EBF7
:100FF000880809EBC80898F80280B8F1010FE2DB15
:10100000DFF8148798F8008008EB880809EBC80817
:1010100098F80380B8F1010FD5DBDFF8FC8698F86B
:10102000008008EB880809EBC808D8F81080DFF8C2
:10103000E89699F8009009EB8909DFF8E0A60AEB39
:10104000C909D9F81890C845BDD8DFF8CC8698F8FA
:10105000008008EB8808D14609EBC808D8F81C9036
:10106000DFF8B48698F8008008EB88080AEBC80817
:10107000D8F82480C145A6D8DFF89C8698F800806F
:1010800008EB8808D14609EBC80898F80280B8F147
:10109000010F4AD0DFF8808698F8008008EB8808B6
:1010A00009EBC808D8F81880DFF86C9699F800901A
:1010B00009EB89090AEBC909D9F81090A8EB0909CD
:1010C000DFF8548698F8008008EB88080AEBC80817
:1010D00098F80280A8F10108B9FBF8F5DFF8388626
:1010E00098F8008008EB8808D14609EBC808D8F8C2
:1010F0001880DFF8249699F8009009EB89090AEB2B
:10110000C909D9F81090A8EB0909DFF80C8698F8FE
:10111000008008EB88080AEBC80898F80280A8F15C
:101120000108B9FBF8FA08FB1A96DFF8EC8598F885
:10113000008008EB8808DFF8E49509EBC80898F808
:101140000280B8F1010F4CD0DFF8CC8598F8008010
:1011500008EB880809EBC808D8F82490DFF8B885B0
:1011600098F8008008EB8808DFF8B0A50AEBC808FB
:10117000D8F81C80A9EB0809DFF89C8598F8008056
:1011800008EB88080AEBC80898F80380A8F1010862
:10119000B9FBF8F7DFF8808598F8008008EB88083D
:1011A000D14609EBC808D8F82490DFF86C8598F888
:1011B000008008EB88080AEBC808D8F81C80A9EB67
:1011C0000809DFF8548598F8008008EB88080AEBD6
:1011D000C80898F80380A8F10108B9FBF8FA08FBE1
:1011E0001A9C002143E000202FE0DFF82C8598F8BE
:1011F000008008EB8808DFF8249509EBC808D8F8C8
:10120000108000FB058800EB8009DFF814A50AEBCD
:10121000491949F83180DFF8008598F8008008EB1B
:101220008808DFF8F89409EBC808D8F8148001FBA7
:10123000078800EB80090AEB491909EBC109C9F8D5
:10124000048000F1010808F0FF00DFF8CC8498F872
:10125000008008EB8808DFF8C49409EBC80898F808
:1012600002808045C1DC01F1010808F0FF01DFF8D0
:10127000A88498F8008008EB8808DFF8A09409EBB0
:10128000C80898F803808845ADDC0122DFF888841F
:1012900098F8008008EB880809EBC80898F80280E5
:1012A000A8EB060808F0FF002CE0002114E000EB9A
:1012B0008008DFF86C9409EB481858F831809044A6
:1012C00000EB8009DFF858A40AEB491949F831808E
:1012D00001F1010808F0FF01DFF83C8498F8008074
:1012E00008EB8808DFF8349409EBC80898F8038005
:1012F0008845DCDC02F1010808F0FF0200F101087A
:1013000008F0FF00DFF8108498F8008008EB8808E8
:10131000DFF8089409EBC80898F802808045C4DC1F
:101320000122DFF8F48398F8008008EB880809EBC5
:10133000C80898F80380A8EB0C0808F0FF0130E01B
:10134000002018E000EB8008DFF8D49309EB481880
:1013500008EBC108D8F80480904400EB8009DFF85E
:10136000C0A30AEB491909EBC109C9F8048000F1CF
:10137000010808F0FF00DFF8A08398F8008008EB70
:101380008808DFF8989309EBC80898F80280804530
:10139000D8DC02F1010808F0FF0201F1010808F0B1
:1013A000FF01DFF8748398F8008008EB8808DFF805
:1013B0006C9309EBC80898F803808845C0DCDFF817
:1013C000588398F8008008EB880809EBC808D8F81B
:1013D0001C90DFF8448398F8008008EB8808DFF859
:1013E0003CA30AEBC808D8F81480C1457DD9DFF8C2
:1013F000288398F8008008EB8808D14609EBC808D4
:1014000098F80380B8F1010F23D0DFF80C8398F827
:10141000008008EB880809EBC808D8F81880DFF8C6
:10142000F89299F8009009EB89090AEBC909D9F8F3
:101430002090A8EB0909DFF8E08298F8008008EB1B
:1014400088080AEBC80898F80380A8F10108B9FBDE
:10145000F8F3DFF8C48298F8008008EB8808DFF81A
:10146000BC9209EBC80898F80280B8F1010F25D0AA
:10147000DFF8A48298F8008008EB880809EBC80818
:10148000D8F81C90DFF8908298F8008008EB880864
:10149000DFF888A20AEBC808D8F81480A9EB08097D
:1014A000DFF8748298F8008008EB88080AEBC80817
:1014B00098F80280A8F10108B9FBF8F400213EE099
:1014C00000202AE000EB8008DFF8549209EB48186E
:1014D00058F8318001FB138800EB8009DFF840A247
:1014E0000AEB491949F8318000E037E000EB800849
:1014F000D14609EB481808EBC108D8F8048000FB76
:10150000048800EB80090AEB491909EBC109C9F805
:10151000048000F1010808F0FF00DFF8FC8198F872
:10152000008008EB8808DFF8F49109EBC80898F808
:1015300002808045C6DC01F1010808F0FF01DFF8F8
:10154000D88198F8008008EB8808DFF8D09109EB83
:10155000C80898F803808845B2DCCFE0DFF8B8818E
:1015600098F8008008EB8808DFF8B09109EBC8080C
:10157000D8F81C90DFF8A08198F8008008EB880864
:10158000DFF898A10AEBC808D8F81480C1457DD2CD
:10159000DFF8848198F8008008EB8808D14609EBD1
:1015A000C80898F80380B8F1010F23D0DFF86881EC
:1015B00098F8008008EB880809EBC808D8F8208064
:1015C000DFF8549199F8009009EB89090AEBC909F1
:1015D000D9F81890A8EB0909DFF83C8198F8008049
:1015E00008EB88080AEBC80898F80380A8F10108FE
:1015F000B9FBF8F3DFF8208198F8008008EB880841
:10160000DFF8189109EBC80898F80280B8F1010FCB
:1016100025D0DFF8048198F8008008EB880809EBF2
:10162000C808D8F81490DFF8F08098F8008008EB2C
:101630008808DFF8E8A00AEBC808D8F81C80A9EBF6
:101640000809DFF8D48098F8008008EB88080AEBD6
:10165000C80898F80280A8F10108B9FBF8F4002145
:101660003EE000202AE000EB8008DFF8B49009EBB0
:10167000481858F8318001FB038800EB8009DFF837
:10168000A0A00AEB491949F8318000E036E000EBF0
:101690008008D14609EB481808EBC108D8F8048047
:1016A00000FB148800EB80090AEB491909EBC1091A
:1016B000C9F8048000F1010808F0FF00DFF8588045
:1016C00098F8008008EB8808DFF8509009EBC8080C
:1016D00098F802808045C6DC01F1010808F0FF019E
:1016E000DFF8348098F8008008EB8808DFF82C9049
:1016F00009EBC80898F803808845B2DC4FF0010870
:10170000DFF8109089F80080DFF8189089F80080E1
:10171000BDE8F0877D400020EC400020C45100204F
:10172000345500207F40002001460A2091FBF0F054
:10173000C2B202EB420001EB4000C0B270470000B1
:1017400038B500240020009006E09E4812F05AFEB2
:1017500004460A2000F04CFB002CF6D000209A49E9
:101760000860084600680002086096498879FFF71B
:10177000DBFF9549096808439349086008460068FB
:10178000000208608F494879FFF7CEFF8E4909684B
:1017900008438D49086008460068000208608949CE
:1017A000C878FFF7C1FF884909680843864908607F
:1017B00086480078012877D1692085490870084655
:1017C0000078844908700846007810F0FFF800207F
:1017D0007E490870804880687F494968884255D2B0
:1017E0007D498868002117F027FC401C7A498860F1
:1017F0008868012117F020FC7749886008468068D6
:10180000764988600846007A7549087073480089EF
:10181000000A487071488068000C88706F488068C2
:10182000000EC87004224FF48C70FFF71BF86A4852
:101830008068000C6B4948704878FFF7B5FA694931
:1018400048700122491C4FF48170FFF70BF8624881
:101850000089000A634988708878FFF7A5FA614912
:1018600088700122891C40F20310FEF7FBFF5A48E2
:10187000007A5C49C870C878FFF796FA5949C87071
:101880000122C91C4FF48270FEF7ECFFA4205649D8
:10189000087001221002FEF7E5FF03F003FE0020AE
:1018A0005249087047E0FFE74B488068464909689D
:1018B000884205D84848406843490968884214D896
:1018C0006820434908700846007842490870084675
:1018D000007810F07BF81E22454945F2405000F098
:1018E000CDFD00204149087025E0374800683A499D
:1018F000886008468068394988600846007A384917
:10190000087036480089000A487034488068000C26
:10191000887032488068000EC87004224FF48C70C2
:10192000FEF7A0FF1E22334945F2405000F0A6FD0D
:1019300001202E49087028498868002117F07CFB97
:1019400080B2ADF8000024494868002117F074FB0C
:1019500080B2ADF80200BDF80200BDF80010401AD8
:1019600025490880002025490860084600680002D3
:1019700008601448807909680843204908600846CF
:101980000068000208600F484078096808431B4956
:10199000086008460068000208600A480078096884
:1019A0000843164908600846006815490968484018
:1019B000124908600846016845F210501DF086FB88
:1019C00038BD00001747002024470020284700208A
:1019D0000200002003000020988000202C470020F7
:1019E00038470020104700200847002022470020E9
:1019F0006247002082470020204700204047002007
:101A00003C470020704770477047000010B54FF406
:101A1000005000F04FF820B14FF4005000F030F8C3
:101A200008E04FF4004000F045F818B14FF40040D2
:101A300000F026F84FF4005000F014F8002104489C
:101A400000F02CF84FF48071024802F00DFE10BD3A
:101A500044000240000C01407047704770477047D7
:101A60007047704700F0805111B10349086001E0F0
:101A70000249486070470000040402400000024030
:101A800000F0805111B10349086001E0024948604B
:101A900070470000040402400000024021B10268C7
:101AA00042F00102026003E0026822F001020260DB
:101AB0007047000001460020002201F0805313B15E
:101AC000054B1A6801E0054B1A6802EA01030BB1E5
:101AD000012000E0002070470004024000000240A6
:101AE00008B5002000909748007807287ED2DFE8EC
:101AF00000F07D04326092C0EF0001208DF80000FC
:101B00000FE09148007860B16A460F21012017F07C
:101B10005DFF00208D4908708B49087001208C49B9
:101B200008708A4800780128EBD117F065FB002087
:101B3000864908708748007860B182480078401C68
:101B40008049087001208049087000208049087091
:101B500081490870EBE002208DF800000FE07A4820
:101B6000007860B16A460F21012017F02FFF002096
:101B700076490870744908700120754908707348E7
:101B800000780128EBD117F037FB00206F4908706F
:101B90007248007860B16B480078401C6949087051
:101BA0000120694908700020694908706A49087075
:101BB000BDE003208DF800000FE06348007860B1BD
:101BC0006A460F21012017F001FF00205F490870CD
:101BD0005D49087001205E4908705C480078012862
:101BE000EBD117F009FB0020584900E09EE0087097
:101BF0005B4908805B48007860B152480078401C1F
:101C00005049087001205049087000205049087060
:101C1000514908708BE005208DF800000FE04A481C
:101C2000007860B16A460F21012017F0CFFE002036
:101C300046490870444908700120454908704348E6
:101C400000780128EBD117F0D7FA00203F4908703F
:101C50004548007860B13B480078401C394908701D
:101C60000120394908700020394908703A49087044
:101C70005DE006208DF800000FE03348007860B189
:101C80006A460F21012017F0A1FE00202F4908709D
:101C90002D49087001202E4908702C480078012831
:101CA000EBD117F0A9FA0020284908702F480078D6
:101CB00060B124480078401C224908700120224964
:101CC0000870002022490870234908702FE0FFE7C0
:101CD00007208DF800000FE01B48007860B16A46CD
:101CE0000F21012017F072FE0020184908701649D4
:101CF0000870012016490870144800780128EBD1BB
:101D000017F07AFA0020114908701948007860B17C
:101D10000C480078401C0B49087001200A490870E3
:101D200000200B4908700C49087000E000BF00BF9C
:101D300004480078062803D101200249087008BD34
:101D40000020FCE7C4470020C047002011460020C7
:101D5000C24700203D460020C14700203E460020EB
:101D6000BE4700203F46002041460020424600205A
:101D70004346002070470000F0B508264FF2B81225
:101D800049F63765174F3F88B9B2164F3F68380C90
:101D900040F2D24341F22E6419E003EB001700EB4E
:101DA000020C87EA0C0704EB601C87EA0C07CF1BC8
:101DB000B9B203EB011701EB020C87EA0C0704EB45
:101DC000611C87EA0C07C71BB8B2571BBAB2371E93
:101DD000A6F1010C0CF0FF06DFDC034F3860034F67
:101DE0003960F0BDA4470020A8470020AC47002080
:101DF00001B503E04FF47A7000F006F80098411E38
:101E000000910028F6D108BD01B581B007E0082097
:101E1000009000BF0098411E00910028FAD101985F
:101E2000411E01910028F2D10CBD00002DE9F041C6
:101E30000024002600270025EC480078401EEC49CD
:101E40000978884274DCE9490978481EC11700EB1B
:101E5000D1614911A0EB4112E64901EB42114978E9
:101E600000297CD0E2480078401EE149087008460D
:101E70000078E0490C390881DF480078401EDF49CE
:101E800001EB00100089401E81B2DB480078401E43
:101E9000DA4A02EB00100181D4490978481EC117C3
:101EA00000EBD16149114FF6FF7202EA4116002E94
:101EB0000BDDCF480078801B202803DD06F12000D1
:101EC00087B203E0CA48077800E020274220CC49C7
:101ED000087008460078CB490870084600780FF073
:101EE00075FDC2480078401E84B21BE0611CC1EB46
:101EF0000111490001F5E04188B21E22C249FEF7F6
:101F000076FC601CC0490870000A4870C4EB0411DC
:101F1000490001F5E04188B21E22BB49FEF7A2FC50
:101F2000601C84B2B24800788442DFDB3446FCE0B7
:101F300057E1C4EB04114FF4E04202EB410188B2D7
:101F40001E22B149C91CFEF752FC01222046E117AE
:101F500004EBD1614911A4EB4113A64900E029E14A
:101F600001EB43110A70A849C978A74A127941EADE
:101F70000221CAB2E11704EBD1614911A4EB41136C
:101F80009C4901EB43114A709F4949799E4A9279D5
:101F900041EA02219C4AD27941EA02419A4A127AE4
:101FA00041EA0262E11704EBD1614911A4EB41134C
:101FB000904901EB43114A609349497A924A927AD7
:101FC00041EA0221904AD27A41EA02418E4A127BCA
:101FD00041EA0262E11704EBD1614911A4EB41131C
:101FE000844901EB43118A608749497B864A927B89
:101FF00041EA0221844AD27B41EA0241824A127CB0
:1020000041EA0262E11704EBD1614911A4EB4113EB
:10201000784901EB4311CA607B49497C7A4A927C3A
:1020200041EA0221784AD27C41EA0241764A127D95
:1020300041EA0262E11704EBD1614911A4EB4113BB
:102040006C4901EB43110A616F49497D6E4A927DEB
:1020500041EA02216C4AD27D41EA02416A4A127E7B
:1020600041EA0262E11704EBD1614911A4EB41138B
:10207000604901EB43114A6163494A7EE11704EB71
:10208000D1614911A4EB41135A4901EB43110A777D
:102090005D498A7EE11704EBD1614911A4EB41133C
:1020A000544901EB4311CA705748807E01280BD078
:1020B0005548807E022807D05348807E032803D0ED
:1020C0005148807E052819D14F49C97E4E4A127F5A
:1020D00041EA02214C4A527F41EA02414A4A927F38
:1020E00041EA02622046E11704EBD1614911A4EBF9
:1020F0004113404901EB43118A6114E04248807E5C
:10210000042810D14049497F3F4A927F41EA022288
:102110002046E11704EBD1614911A4EB4113354985
:1021200001EB4311CA83601C84B2BC42FFF601AFCD
:10213000E11704EBD1614911A4EB4111002939D019
:102140002046E11704EBD1614911A4EB41118DB296
:102150002EE00021274800EB45100170254800EBD8
:1021600045104170234800EB45104160214800EBC9
:10217000451081601F4800EB4510C1601D4800EB11
:10218000451001611B4800EB45104161194800EB07
:1021900045100177174800EB4510C170154800EB5A
:1021A00045108161134800EB4510C183681C85B25E
:1021B000202DCEDB1548007810B901201349087096
:1021C0000A48007810B90120084908700020104919
:1021D000087001200F4908700F49087000200F494E
:1021E0000870082006490870BDE8F08186000020CC
:1021F00038220020987C00207F00002030870020BB
:102200000200002003000020064900208400002076
:10221000E51C002085050020161D00205604002026
:1022200010B500248248007882490978884278DC19
:1022300080480078002874DD7D480078401E7E4983
:1022400001EB001040787D490978884240D1002098
:102250007B49088048808880C880088148818881BF
:10226000C8817849087048708870C87008714871D2
:102270008871C87174490870487048600881734952
:10228000087048704860088101226C4941F21500CD
:10229000FEF7E8FA01206E49087000206D490870C9
:1022A00001206D4908706A4908700020694908706A
:1022B0000120694908706949087000206849087060
:1022C00001206849087000205C4908706649086070
:1022D000002157480078401E574A02EB0010407812
:1022E000401E624A115453480078401E51490870FC
:1022F000E9205F4908704E480078401E4E4901EBC6
:10230000001040785A4948700A460D21022017F003
:102310005DFB00205749087045480078401E84B294
:102320002AE084E04449601C01EB0010007801EBD6
:10233000041108704049601C01EB0010407801EB6B
:10234000041148703C49601C01EB0010008901EB4E
:10235000041108813849601C01EB0010406801EB52
:10236000041148603449601C01EB0010C06801EBA7
:102370000411C860601C84B22E4800788442D1DB0E
:1023800000212B480078401E2B4A02EB00104078B9
:10239000401E394A02EB0010017025480078401EAB
:1023A000254A02EB00104078401E334A02EB001031
:1023B00041601F480078401E1F4A02EB0010407821
:1023C000401E2D4A02EB0010018119480078401E82
:1023D000194A02EB00104078401E274A02EB001019
:1023E000C16000201449134A127801EB02110870F1
:1023F0001149104A127801EB021148700E490D4A3A
:10240000127801EB021148800B490A4A127801EB5D
:10241000021108810849074A127801EB021148604D
:1024200000210548034A127800EB0210C16010BD7C
:102430007F000020B0470020308700206C00002083
:10244000504D00204C0400208C7C0020807800201F
:1024500081000020820000208300002084000020F2
:10246000850000208600002060040020B08D002040
:10247000CA480020E51C0020B080002070B504464A
:102480000E461546A520154908705A204870E81CCC
:1024900088708220C870200A08714C7106210F488C
:1024A00017F0CAFD00200E49087011E00C480078B2
:1024B000305C0C49088000BF0A48001F008800F00B
:1024C00040000028F8D006480078401C04490870F5
:1024D00003480078A842E9DB70BD0000B048002046
:1024E0002E000020044800402DE9F05F04460D4610
:1024F00016461F46DDE90CABDDE90A89A5201D491A
:1025000008705A204870172088708220C8702012E6
:1025100008714C71002088710620C8710020087273
:102520000120487228128872CD72301208734E73DF
:1025300038128873CF734FEA2820087481F811800D
:102540004FEA2920887481F813904FEA2A200875F1
:1025500081F815A04FEA2B20887581F817B0FF206D
:102560000876002048761A21024817F065FDBDE87C
:10257000F09F0000B04800201FB584B0BDF81E00D9
:10258000BDF81C10BDF81A20BDF81830CDE9003296
:10259000CDE90210BDF81630BDF81420BDF81210B8
:1025A000BDF81000FFF7A0FF08B010BDA3480078E9
:1025B0004E286ED022DC33286CD010DC2C2858D06A
:1025C00006DC16283DD0282843D0292873D148E0BE
:1025D0002D2856D02F285ED03128F7D163E040282F
:1025E0006AD006DC352872D03E287DD03F28EDD158
:1025F00082E0412873D04C28E8D19BE06C286FD052
:1026000010DC62286DD006DC50286BD058286AD0C8
:102610005F28DBD1AEE0632876D0682875D06B28C0
:10262000D4D1C7E0732871D006DC6D286FD0712833
:102630006ED07228CAD1DDE074286AD07828C5D15E
:10264000F0E041F204007E49088001207D490870D5
:10265000F1E044F243007A4908800120794908708A
:10266000E9E045F22A0076490880012075490870A2
:10267000E1E045F22A0072490880012071490870A2
:10268000D9E045F245006E49088001206D49087087
:10269000D1E057E013E045F2590069490880012074
:1026A00068490870C7E045F2670065490880012065
:1026B00064490870BFE0BDE02CE008E014E04FF48E
:1026C000A1405F49088001205E490870B3E045F2EF
:1026D0006F005B49088001205A490870ABE021E097
:1026E00070E04FE036E03DE042F22160544908805E
:1026F0000120544908709EE042F22360504908804E
:1027000001205049087096E044E04BE07AE061E037
:1027100068E07FE042F2326049490880012049497F
:10272000087088E042F2366045490880012045493A
:10273000087080E045F20730414908800120414996
:10274000087078E045F249303D49088001203D4954
:10275000087070E045F25930394908800120394944
:10276000087068E041F2A100354908800120354930
:10277000087060E044F24700314908800120314987
:10278000087058E044F20B002D49088001202D49C3
:10279000087050E044F21B002949088001202949B3
:1027A000087048E045F2315025490880012025494C
:1027B000087040E045F24900214908800120214984
:1027C000087038E045F24B001D49088001201D4982
:1027D000087030E044F2540019490880012019497A
:1027E000087028E044F26700154908800120154967
:1027F000087020E044F24B00114908800120114983
:10280000087018E045F22A000D49088001200D49A2
:10281000087010E041F2410009490880012009498F
:10282000087008E045F24930054908800120054953
:10283000087000E000BF00BF7047000002000020E9
:10284000040000202400002010B5C820FFF7D0FAB3
:10285000012000F069F800283DD021480078942834
:1028600033D01F48007895282FD01D48007896282F
:102870002BD01B480078972827D019480078982833
:1028800023D01748007899281FD0154800782828A9
:102890001BD0134800785F2817D0114800784728CC
:1028A00013D00F48007802280FD00D480078042874
:1028B0000BD00B480078092807D0094800780A286F
:1028C00003D007480078A12805D10648007810B940
:1028D000012005490870012000F00EF810BD00002D
:1028E000020000207F4600205422002070477047DD
:1028F0007047704770477047014908607047000093
:1029000014040140002006490860091D0860091DE3
:102910000860091D086003480149143108607047C8
:1029200000040140FFFF0F00014600200022074B7A
:102930001B6803EA0102054B14331B680B4013B1FB
:102940000AB1012000E000207047000000040140AF
:10295000002123498279002A3AD00A461268036886
:102960009A430B461A600A1D126803689A430B1DAE
:102970001A60027911440A6803681A430A60184A07
:102980000832126803689A43154B08331A601A1DFF
:10299000126803689A43124B0C331A604279102A6A
:1029A0000ED11A1F126803681A430D4B08331A60C0
:1029B0001A1D126803681A43094B0C331A600DE0A4
:1029C0000749427911440A6803681A430A6005E01E
:1029D000027911440A6803689A430A60704700004C
:1029E000000401400021016001710C2141710021AE
:1029F000817170477047000010B5FE48018845F2AC
:102A00005232881A914276D062DC45F23032A1EB24
:102A10000200914270D036DC45F20732A1EB020091
:102A200091426AD01CDC45F20332A1EB02009142D4
:102A300071D00EDCA1F58041A1F59551002901F07E
:102A40007280602968D0612967D0622941F088844A
:102A50002EE3012862D0022861D00328F6D15CE37E
:102A600007285DD008DC01285BD002285AD0032853
:102A700059D00428EAD1C2E30C2855D0192863D0D4
:102A80002528E3D1FEE3801E1F2881F06984DFE85A
:102A900010F098001E0BAF001E0BC6001E0BDD00D1
:102AA0001E0BF4001E0B1E0B1E0B1E0B1E0B0B0130
:102AB00099042301A0043A01A1045101B60469015B
:102AC0001E0B81011E0B1E0B1E0B1E0B1E0B9901F4
:102AD000572870D034DC4D286ED018DC08286CD014
:102AE0000CDC02286AD0042869D0062868D00728A0
:102AF000ACD101F013BC85E145E017E30A2801F0F1
:102B000021840B2801F0258418289FD1F3E34E3847
:102B10000928BAD209E0E4E2EBE1F1E1E2E2E2E223
:102B2000EAE3C4E3C9E3D4E3E7E3DFE810F08804B1
:102B3000BD04FD043F05AB07D00A07065906AB06E6
:102B400058381C28A1D200E0F2E3DFE810F03F077C
:102B5000CA07C00ABC07C00AD807C00A7404C00A62
:102B6000C00ABB07C00AC00AC00A0008C00A0E0893
:102B7000C00AC00A1A08C10AC00A8C0B980BB70B0E
:102B8000C30BCF0BDB0B9C4800686421B0FBF1F05A
:102B90009A49C87003209A4908700920487001209A
:102BA00088709648C078C8700A461E21042016F026
:102BB00013FD01F0D5BBFDE3FDE382E139E150E116
:102BC00067E18D4800686421B0FBF1F08B49087023
:102BD00003208B49087009204870022088708748BC
:102BE0000078C8700A461E21042016F0F5FCE0E7C4
:102BF000814800686421B0FBF1F0804948720320ED
:102C00007F49087009204870032088707B48407A0B
:102C1000C8700A461E21042016F0DEFCC9E776487B
:102C200000686421B0FBF1F0744988710320744995
:102C30000870092048700420887070488079C87036
:102C40000A461E21042016F0C7FCB2E76A48006855
:102C50006421B0FBF1F069490873032068490870EA
:102C600009204870052088706448007BC8700A46B7
:102C70001E21042016F0B0FC9BE75F480068642129
:102C8000B0FBF1F05D49C87303205D49087009206D
:102C90004870062088705948C07BC8700A461E21BB
:102CA000042016F099FC84E7534800686421B0FBC7
:102CB000F1F0C1B251480171032051490870092057
:102CC0004870072088704D480079C8700A461E2158
:102CD000042016F081FC6CE7474800686421B0FBD3
:102CE000F1F04649487003204549087009204870B2
:102CF0000820887041484078C8700A461E21042088
:102D000016F06AFC55E73C4800686421B0FBF1F01E
:102D1000C1B23A48817203203949087009204870CD
:102D200088703648807AC8700A461E21042016F042
:102D300053FC3EE7304800686421B0FBF1F0C1B2BB
:102D40002E48C17103202E490870092048700A20BE
:102D500088702A48C079C8700A461E21042016F0DF
:102D60003BFC26E7244800686421B0FBF1F0C1B2C7
:102D700022484173032022490870092048700B2023
:102D800088701E48407BC8700A461E21042016F039
:102D900023FC0EE7184800686421B0FBF1F0C1B2D3
:102DA00016480174032016490870092048700C2049
:102DB00088701248007CC8700A461E21042016F054
:102DC0000BFCF6E60C4800686421B0FBF1F0C1B2E0
:102DD0000A48417103200A490870092048700D20F3
:102DE000887006484079C8700A461E21042016F0F3
:102DF000F3FBDEE604000020140000209C510020BC
:102E0000CA480020FE4800686421B0FBF1F0FD498B
:102E100088700320FC490870092048700E208870D3
:102E2000F8488078C8700A461E21042016F0D4FBAA
:102E3000BFE6F34800686421B0FBF1F0C1B2F1488D
:102E4000C1720320F0490870092048700F20887073
:102E5000EC48C07AC8700A461E21042016F0BCFB5C
:102E6000A7E6E74800686421B0FBF1F0C1B2E5488D
:102E700001720320E449087009204870102088700E
:102E8000E048007AC8700A461E21042016F0A4FB10
:102E90008FE6DB4800686421B0FBF1F0C1B2D9488D
:102EA00081730320D8490870092048701120887068
:102EB000D448807BC8700A461E21042016F08CFB83
:102EC00077E6CF4800686421B0FBF1F0C1B2CD488D
:102ED00041740320CC490870092048701220887082
:102EE000C848407CC8700A461E21042016F074FBB6
:102EF0005FE64C20C54908700120C549087058E6B6
:102F00004E20C2490870C348007800EB8000C249D7
:102F100011F83000BF49097801EB8101BF4A02F87E
:102F20003100BC48007800EB8000BB4901EBC000D9
:102F30004078B849097801EB810102EBC101487082
:102F4000B448007800EB8000B34901EBC000807802
:102F5000B049097801EB810102EBC1018870AD48ED
:102F6000007800EB8000AC4901EBC000C078A949B3
:102F7000097801EB810102EBC101C870A548007816
:102F800000EB8000A44901EBC0008088A1490978CA
:102F900001EB810102EBC10188809E48007800EBC3
:102FA00080009D4901EBC000C0889A49097801EB77
:102FB000810102EBC101C8809648007800EB8000D7
:102FC000954901EBC00080689249097801EB8101C5
:102FD00002EBC10188608F48007800EB80008E49C9
:102FE00001EBC000C0688B49097801EB810102EB5D
:102FF000C101C8608748007800EB8000864901EB7A
:10300000C00000698349097801EB810102EBC1012D
:1030100008618048007800EB80007F4901EBC00028
:1030200041697C48007800EB800002EBC000416100
:103030007848007800EB8000774901EBC000806998
:103040007449097801EB810102EBC1018861714883
:10305000007800EB8000704901EBC000C1696D4849
:10306000007800EB800002EBC000C1616948007885
:1030700000EB8000684901EBC000006A65490978EF
:1030800001EB810102EBC10108626248007800EBAC
:103090008000614901EBC000416A5E48007800EBA6
:1030A000800002EBC000416201205D49087080E5AC
:1030B0005020564908705B4800685B4908605948D1
:1030C000806888605748C068C86056484068486053
:1030D0005448006908610120544908705449087037
:1030E00067E566E565E55348007840B144480088E7
:1030F00081B25148514A127820F8121009E0504824
:103100004E49097830F811104B484C4A127820F893
:10311000121001204B4908704BE53B4A1E21072045
:1031200016F05AFA01203A49087042E544480E3830
:10313000407841490E39487041480E3881783E4800
:103140000E3881703E480E38C1783B480E38C17049
:103150003B480E38017938480E38017138480E382E
:10316000417935480E38417135480E3881793248F9
:103170000E38817132480E3890F82E002E490E39E3
:1031800081F82E002E480E3890F82F102A480E385D
:1031900080F82F102A480E3890F8301026480E3844
:1031A00080F8301026480E3890F8311022480E383A
:1031B00080F8311022480E3890F832101E480E3830
:1031C00080F832101E480E3890F833101A480E3826
:1031D00080F833101A480E3890F8260016490E3938
:1031E00081F8260016480E3890F8270081F827004D
:1031F00013480E3890F828100F480E3824E07DE070
:10320000140000209C510020CA4800200200002029
:103210005D3F0020EC400020C45100207C53002082
:103220005E3F0020C46F0020D86F00207600002091
:103230005F3F0020410000206651002072400020C6
:10324000225100205C40002080F82810FE4890F8B1
:103250002910FE4880F82910FB4890F82A10FB48F6
:1032600080F82A10F84890F82B10F84880F82B10B6
:10327000F54890F82C10F54880F82C10F24890F89A
:103280002D0000E099E0F14981F82D00EE48C06B77
:10329000C863ED4890F8400081F84000EA4890F893
:1032A000410081F841001120E949087081E4E948B2
:1032B0000078E64981F826007BE4E648008801288A
:1032C00003DBE4480088142802DD1420E14908806B
:1032D0006FE4E148007868B1E0480078401CDF49BD
:1032E000087008460078062801D1002008700120E7
:1032F000DB4908705DE44CE02DE01AE0D648007828
:10330000A8B1D2482E30D5490978405C30B10021AF
:10331000CE482E30D14A1278815405E00121CB48A5
:103320002E30CE4A127881540120CD49087040E4F5
:1033300042E0C948007868B1CA480078401CC949D1
:10334000087008460078062801D100200870012086
:10335000C54908702DE4C0480078C8B1BB480830A2
:10336000C0490978405C401CC1B2B8480830BD4A29
:1033700012788154BB490978405C022805DB0021A2
:10338000B2480830B74A127881540120B649087013
:103390000FE4B04800880A2803DBAE4800886428A0
:1033A00002DD0A20AB490880AA480078A74981F8C5
:1033B0002D001CE4B8E26FE119E4AC480068A349B1
:1033C000C86314E4A448007810B10120A84908702B
:1033D0000DE40CE4A048007880B19C4890F84000CF
:1033E000012804D10020994981F8400003E0012020
:1033F000964981F8400001209E4908700EE49648E5
:103400000078B8B1914890F84100401C8F4981F88C
:103410004100084690F8410000F00F00052806D151
:10342000084690F8410000F0F00081F841000120CA
:103430009149087009E497208549087005E44E20F9
:103440008349087000208D4908708D4840788D4967
:1034500048708B48807888708948C078C8708848E0
:1034600000690861864841698648416184488069ED
:10347000844988618248C1698248C1618048006A84
:10348000804908627E48416A7E4841627C48C08823
:103490007C4988807A48806888607948C068C860BC
:1034A00001207949087016E44E206949087001200E
:1034B00072490870724890F82910724880F82910F3
:1034C0006F4890F82A106F4880F82A106C4890F8DE
:1034D0002B106C4880F82B106948816B6948816318
:1034E0006748C16B6748C1636548016C6548016402
:1034F0006348416C634841646148816C6148816400
:103500005F48C16C5F48C1645D48C18D5D4881857D
:103510005B48016B5B4801635948416B5948416303
:1035200001205949087004E44E20494908700220DE
:1035300052490870524890F85110524880F8511082
:103540004F4890F852104F4880F852104C4890F86D
:1035500053104C4880F853104948016E49480166A1
:103560004748416E474841664548816E45488166F7
:103570004348C16E4348C1664148016F41480167F5
:103580003F48416F3F4841673D48B0F856103D48BD
:10359000A0F854103A48816D3A4881653848C16DA9
:1035A0003848C1650120384908700AE44E2028498E
:1035B0000870032031490870314890F8791031487B
:1035C00080F879102E4890F87A102E4880F87A10FA
:1035D0002B4890F87B102B4880F87B102848D0F8B7
:1035E00088102848C0F888102548D0F88C10254845
:1035F000C0F88C102248D0F890102248C0F89010E3
:103600001F48D0F894101F48C0F894101C48D0F8F8
:1036100098101C48C0F898101948D0F89C10194808
:10362000C0F89C101648B0F87E101648A0F87C1020
:103630001348D0F880101348C0F880101048D0F814
:103640008410104822E0000014510020585100203E
:10365000020000200600002041000020FF31002071
:103660005A400020724000205C40002014000020DE
:103670005F4000205D4000205E400020EC400020C4
:10368000C45100207C5300205E3F0020C0F884100D
:103690000120F749087013E44E20F6490870042011
:1036A000F5490870F54890F8A110F54880F8A11088
:1036B000F24890F8A210F24880F8A210EF4890F873
:1036C000A310EF4880F8A310EC48D0F8B010EC48F5
:1036D000C0F8B010E948D0F8B410E948C0F8B41008
:1036E000E648D0F8B810E648C0F8B810E348D0F87B
:1036F000BC10E348C0F8BC10E048D0F8C010E04867
:10370000C0F8C010DD48D0F8C410DD48C0F8C410BF
:10371000DA48B0F8A610DA48A0F8A410D748D0F8D4
:10372000A810D748C0F8A810D448D0F8AC10D44896
:10373000C0F8AC100120CE490870B8E44E20CD4945
:1037400008700520CC490870CC4890F8C910CC48C6
:1037500080F8C910C94890F8CA10C94880F8CA1042
:10376000C64890F8CB10C64880F8CB10C348D0F8B4
:10377000D810C348C0F8D810C048D0F8DC10C048F2
:10378000C0F8DC10BD48D0F8E010BD48C0F8E0102B
:10379000BA48D0F8E410BA48C0F8E410B748D0F8F6
:1037A000E810B748C0F8E810B448D0F8EC10B448B6
:1037B000C0F8EC10B148B0F8CE10B148A0F8CC1069
:1037C000AE48D0F8D010AE48C0F8D010AB48D0F812
:1037D000D410AB48C0F8D4100120A549087066E4A5
:1037E0004E20A44908700620A3490870A34890F809
:1037F000F110A34880F8F110A04890F8F210A0480A
:1038000080F8F2109D4890F8F3109D4880F8F3106E
:103810009A48D0F800119A48C0F800119748D0F89B
:1038200004119748C0F804119448D0F8081194483E
:10383000C0F808119148D0F80C119148C0F80C114B
:103840008E48D0F810118E48C0F810118B48D0F86F
:1038500014118B48C0F814118848B0F8F610884845
:10386000A0F8F4108548D0F8F8108548C0F8F81092
:103870008248D0F8FC108248C0F8FC1001207C4936
:10388000087014E44E207B49087007207A490870BC
:103890007A4890F819117A4880F81911774890F809
:1038A0001A11774880F81A11744890F81B1174485F
:1038B00080F81B117148D0F828117148C0F8281100
:1038C0006E48D0F82C116E48C0F82C116B48D0F817
:1038D00030116B48C0F830116848D0F8341168488E
:1038E000C0F834116548D0F838116548C0F838116F
:1038F0006248D0F83C116248C0F83C115F48B0F80B
:103900001E115F48A0F81C115C48D0F820115C48DB
:10391000C0F820115948D0F824115948C0F8241192
:10392000012053490870C1E44E2052490870082014
:1039300051490870514890F84111514880F841119F
:103940004E4890F842114E4880F842114B4890F88A
:1039500043114B4880F843114848D0F8501148486B
:10396000C0F850114548D0F854114548C0F85411DA
:103970004248D0F858114248C0F858113F48D0F892
:103980005C113F48C0F85C113C48D0F860113C48DD
:10399000C0F860113948D0F864113948C0F8641192
:1039A0003648B0F846113648A0F844113348D0F8EC
:1039B00048113348C0F848113048D0F84C1130480D
:1039C000C0F84C1101202A4908706FE44E202949A3
:1039D0000870092028490870284890F8691128487B
:1039E00080F86911254890F86A11254880F86A1115
:1039F000224890F86B11224880F86B111F48D0F8CC
:103A000078111F48C0F878111C48D0F87C111C4868
:103A1000C0F87C111948D0F880111948C0F88011FD
:103A20001648D0F884111648C0F884111348D0F80D
:103A300088111348C0F888111048D0F88C1110482C
:103A4000C0F88C110D48B0F86E110D48A0F86C113B
:103A50000A48D0F870110A48C0F870110748D0F829
:103A600074110748C0F874110120014908702EE351
:103A70005E3F002002000020EC400020C4510020E6
:103A80007C530020FE48007800EB8000FD4901EBEC
:103A9000C000407848B90120F949097801EB81015B
:103AA000F84A02EBC101487008E00020F4490978A7
:103AB00001EB8101F34A02EBC10148700120F24998
:103AC000087004E303E3F1480078ED49097801EB5D
:103AD0008101EC4A02EBC10188700120EC490870B9
:103AE000F5E2EA480078E649097801EB8101E54A08
:103AF00002EBC101C8700120E5490870E7E2E34824
:103B0000006800EB80004FF6FF7101EA4000DC49DD
:103B1000097801EB8101DB4A02EBC10188800120B9
:103B2000DB490870D3E2D948006800EB80004FF60B
:103B3000FF7101EA4000D249097801EB8101D14AC5
:103B400002EBC101C8800120D1490870BFE2CF4813
:103B50000068CB49097801EB8101CA4A02EBC10137
:103B600088600120CA490870FAE31220C949087028
:103B70002C20C94908700120C8490870C84908703C
:103B8000EEE3BF480078BE49097801EB8101C54AE0
:103B900002F83100BA48007800EB8000B94901EB27
:103BA000C0004078B649097801EB810102EBC10100
:103BB0004870B348007800EB8000B24901EBC000C8
:103BC0008078AF49097801EB810102EBC10188706F
:103BD000AB48007800EB8000AA4901EBC000C07838
:103BE000A749097801EB810102EBC101C870A44823
:103BF000007800EB8000A34901EBC0000069A049F8
:103C0000097801EB810102EBC10108619C48007851
:103C100000EB80009B4901EBC000416998480078A7
:103C200000EB800002EBC00041619548007800EB9A
:103C30008000944901EBC00080699149097801EB4B
:103C4000810102EBC10188618D48007800EB8000A2
:103C50008C4901EBC000C1698948007800EB800005
:103C600002EBC000C1618648007800EB8000854906
:103C700001EBC000006A8249097801EB810102EB87
:103C8000C10108627E48007800EB80007D4901EBAD
:103C9000C000416A7A48007800EB800002EBC00067
:103CA00041627748007800EB8000764901EBC00064
:103CB00080887349097801EB810102EBC10188809A
:103CC0006F48007800EB80006E4901EBC000C088AF
:103CD0006B49097801EB810102EBC101C88068489A
:103CE000007800EB8000674901EBC0008068644900
:103CF000097801EB810102EBC1018860604800781E
:103D000000EB80005F4901EBC000C0685C490978A6
:103D100001EB810102EBC101C86003206249087018
:103D2000022048705648007800EB8000114611F8D8
:103D300030005D4988705248007800EB80001146E1
:103D400001EBC00040785849C8704D48007800EB3E
:103D50008000114601EBC000807853490871484843
:103D6000007800EB8000114601EBC000C0784E499E
:103D700048714348007800EB8000114601EBC00019
:103D80000079494988713E48007800EB800011466F
:103D900001EBC000808800124349C87138480078A0
:103DA00000EB8000114601EBC00080793E490872AB
:103DB0003348007800EB8000114601EBC000C0885A
:103DC0000012394948722E48007800EB80001146F5
:103DD00001EBC000007A344988722948007800EB72
:103DE0008000114601EBC0000089000A2E49C8720C
:103DF0002348007800EB8000114601EBC00080688A
:103E0000000C294908731E48007800EB8000114619
:103E100001EBC0008068000E234948730A461E214A
:103E20000E2015F0D9FB03201F4908704870144874
:103E3000007800EB80001B4901EBC000007B1A49B1
:103E400088700F48007800EB8000164901EBC00035
:103E50008089000A1449C8700948007800EB800086
:103E6000104901EBC000C068000C0F4908710448FC
:103E7000007800EB80000B4901EBC000C06815E042
:103E8000EC4000207C5300208140002014000020E2
:103E9000824000208340002002000020ED310020FD
:103EA000EE310020C4510020CA480020000EFA491B
:103EB0004871FA48007800EB8000F94901EBC00036
:103EC000007CF5498871F548007800EB8000F449E2
:103ED00001EBC000008A000AEF49C871EF48007882
:103EE00000EB8000EE4901EBC0000069000CEA49DC
:103EF0000872EA48007800EB8000E94901EBC00055
:103F00000069000EE4494872E448007800EB800044
:103F1000E34901EBC000007DDF498872DF4800788B
:103F200000EB8000DE4901EBC000808A000ADA491C
:103F3000C872DA48007800EB8000D94901EBC00074
:103F40004069000CD4490873D448007800EB800025
:103F5000D34901EBC0004069000ECF494873CF48F8
:103F6000007800EB8000CE4901EBC000007ECA491A
:103F70008873CA48007800EB8000C94901EBC00093
:103F8000008B000AC449C873C448007800EB800065
:103F9000C34901EBC0008069000CBF490874BF48E9
:103FA000007800EB8000BE4901EBC0008069000E84
:103FB000B9494874B948007800EB8000B84901EB72
:103FC000C000007FB4498874B448007800EB8000DA
:103FD000B34901EBC000808B000AAF49C874AF48F9
:103FE000007800EB8000AE4901EBC000C069000C16
:103FF000A9490875A948007800EB8000A84901EBA1
:10400000C000C069000EA4494875A448007800EBC0
:104010008000A34901EBC00090F820009E498875FC
:104020009E48007800EB80009D4901EBC000008CA9
:10403000000A9949C8759948007800EB80009849B2
:1040400001EBC000006A000C9349087693480078A1
:1040500000EB8000924901EBC000006A000E8E491F
:1040600048768E48007800EB80008D4901EBC00057
:1040700090F82400884988768848007800EB800012
:10408000874901EBC000808C000A8349C8768348C9
:10409000007800EB8000824901EBC000406A000C10
:1040A0007D4908777D48007800EB80007C4901EB72
:1040B000C000406A000E784948770A461E2108462B
:1040C00015F08AFAFCF726FF01207649087047E1CF
:1040D0007248007800EB8000714901EBC000407825
:1040E0006E49097801EB81016F4A02EBC10148700A
:1040F0006A48007800EB8000694901EBC0008078D5
:104100006649097801EB810102EBC10188706348BF
:10411000007800EB8000624901EBC000C0785F4985
:10412000097801EB810102EBC101C8705B4800789E
:1041300000EB80005A4901EBC0008088574909789C
:1041400001EB810102EBC10188805448007800EB4B
:104150008000534901EBC000C0885049097801EB49
:10416000810102EBC101C8804C48007800EB80005F
:104170004B4901EBC00080684849097801EB810197
:1041800002EBC10188604548007800EB800044499B
:1041900001EBC000C0684149097801EB810102EBE5
:1041A000C101C8603D48007800EB80003C4901EB4C
:1041B000C00000693949097801EB810102EBC101B6
:1041C00008613648007800EB8000354901EBC000FB
:1041D00041693248007800EB800002EBC000416189
:1041E0002E48007800EB80002D4901EBC00080696B
:1041F0002A49097801EB810102EBC1018861274856
:10420000007800EB8000264901EBC000C16923481B
:10421000007800EB800002EBC000C1611F4800780D
:1042200000EB80001E4901EBC000006A1B490978C1
:1042300001EB810102EBC10108621848007800EB34
:104240008000174901EBC000416A1448007800EB78
:10425000800002EBC0004162112014490870002068
:10426000134908707CE00B201149087029200F4980
:10427000087001200F4908700F49087070E00C2089
:104280000B4908707320094908700120094908701A
:104290000949087064E00000CA480020EC40002092
:1042A000C45100205E3F00207C530020020000200B
:1042B00083400020ED310020EE3100200D202949FF
:1042C00008702920284908700120284908702849C9
:1042D000087045E00E2023490870732022490870B9
:1042E0000120224908702249087039E00F201D4939
:1042F000087029201C49087001201C4908701C49BD
:1043000008702DE0102017490870732016490870B6
:104310000120164908701649087021E01548006808
:10432000154908601348806888601248C068C860F2
:104330001048406848600F480069086111200A4928
:1043400008700DE000200C49086101200B4908703D
:1043500006E000200849486001200949087000BFB4
:1043600000BF10BD8340002002000020ED3100207E
:10437000EE310020C46F0020D86F0020894000205B
:104380008840002008B54FF40070ADF8000003200D
:104390008DF8020018208DF803006946514800F09E
:1043A000C7F84FF48060ADF8000004208DF80300DA
:1043B00069464C4800F0BCF80220ADF8000003202C
:1043C0008DF8020010208DF803006946454800F082
:1043D000AFF80420ADF8000018208DF803006946FE
:1043E000404800F0A5F80820ADF8000004208DF842
:1043F000030069463B4800F09BF84FF48060ADF83D
:10440000000003208DF8020018208DF80300694693
:10441000354800F08DF84FF40060ADF8000004203E
:104420008DF803006946304800F082F84FF4704080
:10443000ADF8000003208DF8020010208DF8030075
:104440006946294800F074F84FF47041264800F09E
:104450000BF94FF47E60ADF8000028208DF80300C2
:104460006946224800F064F80120ADF800000420FD
:104470008DF8030069461C4800F05AF80220ADF898
:10448000000004208DF803006946174800F050F83A
:104490000120ADF8000004208DF8030069461148A2
:1044A00000F046F84FF40050ADF8000004208DF8FD
:1044B000030069460D4800F03BF80E20ADF80000FF
:1044C00004208DF803006946084800F031F8C02048
:1044D000ADF8000004208DF803006946014800F0A3
:1044E00027F808BD00080140000C01400010014001
:1044F00030B500228B071C0F0F2303FA04F20B4B7D
:104500008C1053F824309343084C8D1044F8253018
:1045100023468C1053F824308C07240F00FA04F43F
:104520002343024C8D1044F8253030BD0800014073
:104530002DE9F0410246002500260020002300243A
:10454000002791F803C00CF00F0591F803C00CF0A0
:10455000100CBCF1000F03D091F802C04CEA050525
:1045600091F800C0BCF1000F31D0146800202BE09E
:104570004FF0010C0CFA00F3B1F800C00CEA03068E
:104580009E4220D183004FF00F0C0CFA03F7BC437E
:1045900005FA03FC4CEA040491F803C0BCF1280FAF
:1045A00006D14FF0010C0CFA00FCC2F814C00AE06E
:1045B00091F803C0BCF1480F05D14FF0010C0CFA83
:1045C00000FCC2F810C0401C0828D1D31460B1F818
:1045D00000C0BCF1FF0F34DD546800202EE000F174
:1045E000080C4FF0010808FA0CF3B1F800C00CEA0F
:1045F00003069E4221D183004FF00F0C0CFA03F703
:10460000BC4305FA03FC4CEA040491F803C0BCF176
:10461000280F05D100F1080C08FA0CF8C2F8148034
:1046200091F803C0BCF1480F07D100F1080C4FF01E
:10463000010808FA0CF8C2F81080401C0828CED3F4
:104640005460BDE8F0810146886880B27047024638
:10465000002093680B400BB1012000E00020704760
:104660000146C86880B27047416170470161704778
:10467000C16070470146C868806880B2704708B55D
:104680000146C86C006800900098C0F3414008BD26
:1046900001469D20405C7047014698204058704775
:1046A00010B504460020C4F8900000219420015168
:1046B000982001519C2001550821A4F8A6102046FD
:1046C00018F05CF9204618F053FE204618F0C6F9A1
:1046D000204618F00BFB002010BD0146D1F89000D9
:1046E000704710B50446204618F024FE002010BD87
:1046F00070B504460D4600219D20015504F1A0002F
:1047000000EB451041612946204618F0C6FC70BDFB
:104710000246002100BF09E0074830F8110000F40C
:10472000004008B908467047481CC1B20829F3DBAD
:104730004FF6FF70F7E700000A9600200148006876
:1047400000BFFEE7F0ED00E010B50446A5200A49E1
:1047500008705A204870052088708220C870200A8E
:1047600008714C71FF2088710020C871082102482F
:1047700015F062FC10BD0000B04800207047704783
:104780007047704710B500200F4908600F48006857
:1047900020F070400D4908600846006840F0405025
:1047A000086000200A49C1F89C010220FDF72CFB9B
:1047B0000120054908600220FDF726FB002004497E
:1047C000C1F8980110BD000098812142000C014001
:1047D000008021420C48806940F010000A4988613D
:1047E0000A48006820F07F400849086008460068D1
:1047F00040F04C50086005480C30006840F4C05050
:1048000002490C310860704700100240000C014062
:1048100010B500200F4908600F48006820F0704074
:104820000D4908600846006840F0405008600120CB
:104830000A49C1F89C010220FDF7E6FA012005496A
:1048400008600220FDF7E0FA00200449C1F8980151
:1048500010BD000098812142000C014000802142DF
:1048600070B50546002600241648006820F0704008
:10487000144908600846006840F00040086000BF26
:1048800016E00020104908600220FDF7BDFA012063
:104890000E49C1F898016006040E0B487C38006888
:1048A00008B1601CC4B20120FDF7AEFA701CC6B29C
:1048B000082EE6DB15B9FFF7ABFF01E0FFF762FF5B
:1048C000204670BD000C01409881214200802142A9
:1048D00070B504461548006820F070401349086020
:1048E0000846006840F04050086000201049086009
:1048F000002517E0E0090E49091D08606006040E56
:104900000220FDF781FA01200A49C1F8980102202E
:10491000FDF77AFA0020064908600220FDF774FAD4
:10492000681CC5B2082DE5DB70BD0000000C01401D
:10493000988121420080214210B50F48006820F084
:1049400070400D4908600846006840F0405008601B
:1049500001200A4908600A49C1F898010420FDF7BE
:1049600053FA0020054908600420FDF74DFA0020A5
:104970000349C1F8980110BD000C01409C812142FF
:104980000080214210B50F48006820F070400D49AA
:1049900008600846006840F04050086000200A495E
:1049A00008600A49C1F89C010420FDF72DFA012096
:1049B000054908600549C1F89C010420FDF724FA67
:1049C00010BD0000000C014098812142008021426E
:1049D00010B500241448006820F0704012490860A7
:1049E0000846006840F00040086001200F49086058
:1049F000FDF70AFA01200E49C1F89801FDF704FA03
:104A000007E0601CC4B2FA2C03DDFFF7BBFF0120F6
:104A100010BD0648803800680028F2D10349091FFC
:104A2000086000BFF4E70000000C01409C812142B7
:104A3000008021421FB5FE48007800F00100FD49CA
:104A4000097801F00101884217D0F948007800F098
:104A5000010048B11022F8496846FBF795FB9DE834
:104A60000F00FDF789FD08E01022F4496846FBF7C6
:104A70008BFB9DE80F00FDF77FFDED48007800F00F
:104A80000200EC49097801F00201884219D0E84897
:104A9000007800F0020050B11022E749103168465A
:104AA000FBF772FB9DE80F00FDF766FD09E01022A1
:104AB000E24910316846FBF767FB9DE80F00FDF700
:104AC0005BFDDB48007800F00400DA49097801F06A
:104AD0000401884219D0D648007800F0040050B193
:104AE0001022D54920316846FBF74EFB9DE80F00A8
:104AF000FDF742FD09E01022D04920316846FBF75E
:104B000043FB9DE80F00FDF737FDC948007800F032
:104B10000800C849097801F00801884219D0C44842
:104B2000007800F0080050B11022C34930316846C7
:104B3000FBF72AFB9DE80F00FDF71EFD09E01022A0
:104B4000BE4930316846FBF71FFB9DE80F00FDF7BB
:104B500013FDB748007800F01000B649097801F05D
:104B60001001884219D0B248007800F0100050B10E
:104B70001022B14940316846FBF706FB9DE80F0063
:104B8000FDF7FAFC09E01022AC4940316846FBF71A
:104B9000FBFA9DE80F00FDF7EFFCA548007800F058
:104BA0002000A449097801F02001884219D0A048CA
:104BB000007800F0200050B110229F495031684623
:104BC000FBF7E2FA9DE80F00FDF7D6FC09E01022A2
:104BD0009A4950316846FBF7D7FA9DE80F00FDF778
:104BE000CBFC9348007800F040009249097801F02E
:104BF0004001884219D08E48007800F0400050B142
:104C000010228D4960316846FBF7BEFA9DE80F001F
:104C1000FDF7B2FC09E01022884960316846FBF7D5
:104C2000B3FA9DE80F00FDF7A7FC8148007800F07B
:104C300080008049097801F08001884219D07C48C1
:104C4000007800F0800050B110227B497031684636
:104C5000FBF79AFA9DE80F00FDF78EFC09E01022A1
:104C6000764970316846FBF78FFA9DE80F00FDF733
:104C700083FC6F48008800F480706E49098801F455
:104C80008071884219D06A48008800F4807050B161
:104C90001022694980316846FBF776FA9DE80F00DB
:104CA000FDF76AFC09E01022644980316846FBF791
:104CB0006BFA9DE80F00FDF75FFC5D48008800F48B
:104CC00000705C49098801F40071884219D0584885
:104CD000008800F4007050B11022574990316846A6
:104CE000FBF752FA9DE80F00FDF746FC09E01022A1
:104CF000524990316846FBF747FA9DE80F00FDF7EF
:104D00003BFC4B48008800F480604A49098801F464
:104D10008061884219D04648008800F4806050B114
:104D200010224549A0316846FBF72EFA9DE80F0096
:104D3000FDF722FC09E010224049A0316846FBF74C
:104D400023FA9DE80F00FDF717FC3948008800F4AE
:104D500000603849098801F40061884219D034485C
:104D6000008800F4006050B110223349B031684629
:104D7000FBF70AFA9DE80F00FDF7FEFB09E01022A1
:104D80002E49B0316846FBF7FFF99DE80F00FDF7AB
:104D9000F3FB2748008800F480502649098801F475
:104DA0008051884219D02248008800F4805050B1C8
:104DB00010222149C0316846FBF7E6F99DE80F0053
:104DC000FDF7DAFB09E010221C49C0316846FBF709
:104DD000DBF99DE80F00FDF7CFFB1548008800F4D4
:104DE00000501449098801F40051884219D0104834
:104DF000008800F4005050B110220F49D0316846AD
:104E0000FBF7C2F99DE80F00FDF7B6FB09E01022A1
:104E10000A49D0316846FBF7B7F99DE80F00FDF766
:104E2000ABFB0348008800F480400249098807E092
:104E3000F4310020F2310020D0340020503700201F
:104E400001F48041884217D01E48008800F4804059
:104E500048B110221C496846FBF796F99DE80F00FF
:104E6000FDF78AFB08E0102218496846FBF78CF929
:104E70009DE80F00FDF780FB1248008800F4004019
:104E80001349098801F40041884219D00D4800886F
:104E900000F4004050B110220B4910316846FBF776
:104EA00073F99DE80F00FDF767FB09E01022074941
:104EB00010316846FBF768F99DE80F00FDF75CFBD1
:104EC0001FBD0000F4310020B03500203038002034
:104ED000F23100201FB5FE48007800F00100FD49C6
:104EE000097801F00101884217D0F948007800F0F4
:104EF000010048B11022F8496846FBF745F99DE8E2
:104F00000F00FDF739FB08E01022F4496846FBF773
:104F10003BF99DE80F00FDF72FFBED48007800F00E
:104F20000200EC49097801F00201884219D0E848F2
:104F3000007800F0020050B11022E74910316846B5
:104F4000FBF722F99DE80F00FDF716FB09E01022A0
:104F5000E24910316846FBF717F99DE80F00FDF7AD
:104F60000BFBDB48007800F00400DA49097801F017
:104F70000401884219D0D648007800F0040050B1EE
:104F80001022D54920316846FBF7FEF89DE80F0056
:104F9000FDF7F2FA09E01022D04920316846FBF70C
:104FA000F3F89DE80F00FDF7E7FAC948007800F034
:104FB0000800C849097801F00801884219D0C4489E
:104FC000007800F0080050B11022C3493031684623
:104FD000FBF7DAF89DE80F00FDF7CEFA09E01022A2
:104FE000BE4930316846FBF7CFF89DE80F00FDF76A
:104FF000C3FAB748007800F01000B649097801F00C
:105000001001884219D0B248007800F0100050B169
:105010001022B14940316846FBF7B6F89DE80F0011
:10502000FDF7AAFA09E01022AC4940316846FBF7C7
:10503000ABF89DE80F00FDF79FFAA548007800F057
:105040002000A449097801F02001884219D0A04825
:10505000007800F0200050B110229F49503168467E
:10506000FBF792F89DE80F00FDF786FA09E01022A1
:105070009A4950316846FBF787F89DE80F00FDF725
:105080007BFA9348007800F040009249097801F0DB
:105090004001884219D08E48007800F0400050B19D
:1050A00010228D4960316846FBF76EF89DE80F00CD
:1050B000FDF762FA09E01022884960316846FBF783
:1050C00063F89DE80F00FDF757FA8148007800F07B
:1050D00080008049097801F08001884219D07C481D
:1050E000007800F0800050B110227B497031684692
:1050F000FBF74AF89DE80F00FDF73EFA09E01022A1
:10510000764970316846FBF73FF89DE80F00FDF7E0
:1051100033FA6F48008800F480706E49098801F402
:105120008071884219D06A48008800F4807050B1BC
:105130001022694980316846FBF726F89DE80F0088
:10514000FDF71AFA09E01022644980316846FBF73E
:105150001BF89DE80F00FDF70FFA5D48008800F48A
:1051600000705C49098801F40071884219D05848E0
:10517000008800F4007050B1102257499031684601
:10518000FBF702F89DE80F00FDF7F6F909E01022A1
:10519000524990316846FAF7F7FF9DE80F00FDF796
:1051A000EBF94B48008800F480604A49098801F413
:1051B0008061884219D04648008800F4806050B170
:1051C00010224549A0316846FAF7DEFF9DE80F003E
:1051D000FDF7D2F909E010224049A0316846FAF7FC
:1051E000D3FF9DE80F00FDF7C7F93948008800F4A8
:1051F00000603849098801F40061884219D03448B8
:10520000008800F4006050B110223349B031684684
:10521000FAF7BAFF9DE80F00FDF7AEF909E010229A
:105220002E49B0316846FAF7AFFF9DE80F00FDF751
:10523000A3F92748008800F480502649098801F422
:105240008051884219D02248008800F4805050B123
:1052500010222149C0316846FAF796FF9DE80F00F9
:10526000FDF78AF909E010221C49C0316846FAF7B7
:105270008BFF9DE80F00FDF77FF91548008800F4CB
:1052800000501449098801F40051884219D010488F
:10529000008800F4005050B110220F49D031684608
:1052A000FAF772FF9DE80F00FDF766F909E010229A
:1052B0000A49D0316846FAF767FF9DE80F00FDF70D
:1052C0005BF90348008800F480400249098807E040
:1052D000F8310020F6310020D03500205038002071
:1052E00001F48041884217D01E48008800F48040B5
:1052F00048B110221C496846FAF746FF9DE80F00A6
:10530000FDF73AF908E0102218496846FAF73CFF21
:105310009DE80F00FDF730F91248008800F40040C6
:105320001349098801F40041884219D00D480088CA
:1053300000F4004050B110220B4910316846FAF7D2
:1053400023FF9DE80F00FDF717F909E01022074938
:1053500010316846FAF718FF9DE80F00FDF70CF9C9
:105360001FBD0000F8310020B03600203039002089
:10537000F63100201FB54748007800F0010046498B
:10538000097801F00101884217D04248007800F006
:10539000010048B1102241496846FAF7F5FE9DE840
:1053A0000F00FDF7E9F808E010223D496846FAF7DA
:1053B000EBFE9DE80F00FDF7DFF83648007800F0BF
:1053C00002003549097801F00201884219D03148BC
:1053D000007800F0020050B11022304910316846C8
:1053E000FAF7D2FE9DE80F00FDF7C6F809E010229B
:1053F0002B4910316846FAF7C7FE9DE80F00FDF70C
:10540000BBF82448007800F004002349097801F033
:105410000401884219D01F48007800F0040050B100
:1054200010221E4920316846FAF7AEFE9DE80F00B3
:10543000FDF7A2F809E01022194920316846FAF771
:10544000A3FE9DE80F00FDF797F81248007800F0E2
:1054500008001149097801F00801884219D00D4867
:10546000007800F0080050B110220C493031684635
:10547000FAF78AFE9DE80F00FDF77EF809E010229A
:10548000074930316846FAF77FFE9DE80F00FDF7C7
:1054900073F81FBDFC310020FA310020D036002007
:1054A0005039002070B5002514480078A42823D175
:1054B000002405E01248005D12490855601CC4B282
:1054C000072CF7DB0F4819F03FFE05460A20FCF7D2
:1054D0008FFC0D480EF096FF0A20FCF789FC4DB1B9
:1054E00006480078401C0549087001221002FBF7AD
:1054F000B9F901E000BFFEE770BD000008470020D9
:105500001047002009470020174700202DE9F047E9
:1055100005460024A04600270026A146FE48007844
:1055200000287DD10120FD490870FD48008918B18F
:10553000FC480078471C00E001274220FA49087027
:1055400008460078F9490870084600780CF03EFAE1
:10555000F74804881BE0611EC1EB0111490001F509
:10556000E04188B21E22F349FBF741F9601CF14982
:105570000870000A4870C4EB0411490001F5E041CD
:1055800088B21E22EB49FBF76DF9601E84B2781ECB
:10559000A042E0DB012D03D0022D01D0052D75D1F5
:1055A000E4490F7038124870E34800788870E24888
:1055B0000088000AC870E0480068000C0871DE48E6
:1055C0000068F02141EA1060DA494871DB48007850
:1055D0008871DA480088000AC871D8480068000C51
:1055E0000872D7480068F02141EA1060D14948723A
:1055F000D34800788872D2480088000AC872D04820
:105600000068000C0873CE480068F02141EA106081
:10561000C8494873CB4800788873CA48008800E0BE
:1056200072E2000AC873C7480068000C0874C548D5
:105630000068F02141EA1060BE494874C248007811
:105640008874C1480088000AC874BF480068000C0C
:105650000875BD480068F02141EA1060B5494875F9
:10566000BA48007888750846C575B9480078087644
:10567000B7480088000A4876B5480068000C88766C
:10568000B3480068000EC87658E0FFE7032D2DD11F
:10569000A8490F703812487000208870C8700871CF
:1056A00048718871C871087248728872C87208732C
:1056B00048738873C873087448748874C87408750C
:1056C0004875A248007888750846C575A0480078D6
:1056D00008769F480088000A48769D480068000CBC
:1056E00088769B480068000EC87627E0042D25D1F7
:1056F00090490F703812487000208870C870087187
:1057000048718871C871087248728872C8720873CB
:1057100048738873C873087448748874C8740875AB
:10572000487588750846C57500200876487689480A
:1057300000788876874800880012C876791EC1EB09
:105740000111490001F5E04188B21E227949FBF7B9
:1057500089F8781EC11700EBD16149114FF6FF722D
:1057600002EA411872480088A0EB0800401C20287B
:1057700003DD08F1200087B203E06D480088401C7B
:1057800087B267480089401C6549088172480078E3
:10579000401E724901EB00100089401C81B26E4826
:1057A0000078401E6D4A02EB0010018160480088BD
:1057B000401C5F49088001205849087008205A4958
:1057C0000870012F13D057490978481EC11700EB04
:1057D000D1614911A0EB411251490C3101EB421149
:1057E000097821B14F480078401C4E4908704D4956
:1057F0000878C11700EB5171C910A0EBC101584ADC
:1058000011701046007810B90820114608704446FF
:1058100034E1C4EB04114FF4E04202EB410188B2E1
:105820001E225049FAF7E3FF01222046E11704EB5C
:10583000D1614911A4EB411339490C3101EB4311FA
:105840000A704849C91EC978464AD21E127941EAEF
:105850000221CAB2E11704EBD1614911A4EB411353
:105860002F490C3101EB43114A703E49C91E497959
:105870003C4AD21E927941EA02213A4AD21ED2799A
:1058800041EA0241374AD21E127A41EA0262E11726
:1058900004EBD1614911A4EB411321490C3101EB17
:1058A00043114A602F49C91E497A2E4AD21E927A64
:1058B00041EA02212B4AD21ED27A41EA0241294A08
:1058C000D21E127B41EA0262E11704EBD161491159
:1058D000A4EB411312490C3101EB43118A602149B9
:1058E000C91E497B1F4AD21E927B41EA02211D4AF2
:1058F000D21ED27B41EA02411A4AD21E127C41EAF0
:105900000262E11704EBD1614911A4EB4113044990
:105910000C3101EB431127E0141D0020161D00205F
:105920008C7C002086000020020000200300002064
:105930003822002006490020501D0020581D00205C
:10594000541D0020601D0020641D0020EC4000203C
:10595000381D00203C1D00207F00002030870020E3
:1059600084000020CD480020CA60FE49497CFD4AE1
:10597000927C41EA0221FB4AD27C41EA0241F94A87
:10598000127D41EA0262E11704EBD1614911A4EBF7
:105990004113F54901EB43110A61F249497DF14A8E
:1059A000927D41EA0221EF4AD27D41EA0241ED4A6D
:1059B000127E41EA0262E11704EBD1614911A4EBC6
:1059C0004113E94901EB43114A61E6494A7EE11777
:1059D00004EBD1614911A4EB4113E34901EB4311FD
:1059E0000A77E0498A7EE11704EBD1614911A4EB03
:1059F0004113DD4901EB4311CA70DA48807E01286A
:105A00000BD0D848807E022807D0D648807E032855
:105A100003D0D448807E052819D1D249C97ED14A05
:105A2000127F41EA0221CF4A527F41EA0241CD4A28
:105A3000927F41EA02622046E11704EBD1614911ED
:105A4000A4EB4113C84901EB43118A6114E0C54836
:105A5000807E042810D1C349497FC24A927F41EA1F
:105A600002222046E11704EBD1614911A4EB411356
:105A7000BD4901EB4311CA83601C84B2BC42FFF6EE
:105A8000C8AEE11704EBD1614911A4EB4111002923
:105A900039D02046E11704EBD1614911A4EB411143
:105AA0008EB22EE00021B04800EB46100170AE48E7
:105AB00000EB46104170AC4800EB46104160AA482C
:105AC00000EB46108160A84800EB4610C160A64874
:105AD00000EB46100161A44800EB46104161A2486A
